:100000000C9412030C942F030C942F030C942F03C5
:100010000C942F030C942F030C942F030C942F0398
:100020000C942F030C942F030C945B240C942D251B
:100030000C949F1A0C942F030C942F030C942F03F1
:100040000C942F030C942F030C942F030C942F0368
:100050000C942F030C94071B0C942F030C942F0368
:100060000C942F030C942F030C942F030C942F0348
:100070000C942F030C942F030C942F030C942F0338
:100080000C942F030C942F030C942F030C942F0328
:100090000C942F030C942F030C942F030C942F0318
:1000A0000C942F030C942F030C942F0387038A03C3
:1000B0008D039003930395039803CB06D006DA06CD
:1000C000CE06D306D806D606320834083F083608CE
:1000D00038083A083C083E084108430845085008DB
:1000E000470849084B084D084F085208F60FF60F0D
:1000F000281028105F107F10E8114612C110461218
:100100006E116E11DF114612461240127B117B11E7
:100110007B117B117B117B117B117B117B117B117F
:100120007B117B117B117B117B117B118C11991140
:10013000A011A711B111D112D112E312E312DA12F8
:10014000E312E312E312D112D112DF12E312E3122F
:10015000DF129A25C125B326C125B3260D263026E8
:10016000B326862695266572676F646F785F657A19
:100170002F38356361613838323336323761663350
:100180003761656232204020302E362E3138302DD6
:1001900032322D673338356465372D64697274796E
:1001A000000000F0A129002B002B00E100E000007E
:1001B000001E00140004001D00010028671F001A23
:1001C0000016001B00010002512000080007000675
:1001D00000E2002C622100150009001900E300294B
:1001E0006F220017000A0005000000015101004CB9
:1001F0000000002A000000390001002E0000002D40
:10020000000000500023001C000B00110000004FF4
:1002100000240018000D0010003378520025000C57
:10022000000E00360034642C62260012000F0037E6
:10023000003571015127001300330038002F0051A1
:10024000002A0031002800E5003000000001000114
:100250000001000100010000003A001E02200222FD
:1002600002010001003B001F0221022302010001E4
:10027000003C002F0226022F00010001003D00304B
:100280000227023000010001003E00310235003536
:100290000200000100010001000000010000000157
:1002A00000010001000000010000000100400052B8
:1002B00000510024020000010040005F005C005972
:1002C0000001000100410060005D005A0062000171
:1002D00000420061005E005B0063000100430055C6
:1002E00000570054002D00010044004500010001AA
:1002F000002E000000350001000100010001000097
:1003000000010001000100010001000100010001E5
:1003100000010001000100010001000100010001D5
:10032000000100690001000100010001000100015D
:100330000001000100010001000000AC00AC000160
:1003400000000001000000AB00AB00010000000154
:10035000000000AC0001000100500001000000ABF3
:10036000000100010051000100E70001000100014F
:100370000052000100006A010001002F004F00013F
:100380000050000100010030000100520051000146
:1003900000A900AA00AE00A8004F00000000000065
:1003A00000000000002A2B280000000000000000D0
:1003B000000000000000000029000000002C1E3496
:1003C00020212224342627252E362D3738271E1F9C
:1003D000202122232425263333362E37381F0405C7
:1003E000060708090A0B0C0D0E0F10111213141535
:1003F000161718191A1B1C1D2F3130232D35040513
:10040000060708090A0B0C0D0E0F10111213141514
:10041000161718191A1B1C1D2F3130354C000000FF
:1004200000000000000000000000000000000000CC
:1004300000000000000000000000000000000101BA
:1004400001010101000101010100000000000000A4
:100450000000000000000001000100010101010195
:10046000010101010101010101010101010101017C
:100470000101010101010101000000010100000072
:10048000000000000000000000000000000000006C
:100490000000000000000000010101010004033021
:1004A00000000016034500720067006F0044006FF3
:1004B000007800200045005A000000160345007235
:1004C0000067006F0044006F007800200045005A6C
:1004D0000000000403090409023B00020100A0FA25
:1004E000090400000103010100092111010001229A
:1004F00040000705810308000A0904010001030008
:10050000000009211101000122C00007058203201B
:10051000000A1201100100000008EDFE071301009F
:100520000102030105010902A10185020901A100DF
:100530000509190129051500250195057501810297
:100540009501750381010501093009311581257F68
:1005500095027508810609381581257F9501750872
:100560008106050C0A38021581257F9501750881E1
:1005700006C0C005010980A10185031601002603FC
:10058000001A81002A8300751095018100C0050CB6
:100590000901A1018504160100269C021A01002A06
:1005A0009C02751095018100C005010906A1018515
:1005B00005050719E029E715002501950875018152
:1005C0000205081901290595057501910295017526
:1005D0000391010507190029EF1500250195F07514
:1005E000018102C005010906A101050719E029E7FB
:1005F0001500250195087501810295017508810195
:1006000005081901290595057501910295017503E4
:1006100091010507190029FF150026FF00950675B1
:10062000088100C011241FBECFEFDAE0DEBFCDBFCE
:1006300011E0A0E0B1E0E2EBFEE402C005900D9213
:10064000A63CB107D9F723E0A6ECB1E001C01D92AA
:10065000AD33B207E1F70E947F210C9457270C9429
:10066000000080B38C7080BB81B3836F81BB089521
:1006700084B1807F84B985B1807F85B98AB1837F59
:100680008AB98BB1837F8BB93E9846980895CF93F2
:10069000E82F873090F58091000190910101892B1E
:1006A00009F048C0CE2F64E670E080E40E94DE04CA
:1006B0009093010180930001892BD1F464E670E0EE
:1006C00082E10E9435059093010180930001892BFE
:1006D00079F481E090E001C0880FCA95EAF764E6FA
:1006E00070E080950E943505909301018093000190
:1006F00084E690E0CF910C948A0590E0FC01379756
:10070000E730F105B8F4EA5AFF4F0C94FB26209A23
:10071000289810C0219A29980DC0229A2A980AC0B8
:10072000239A2B9807C0529A01C0539A5B9802C033
:100730003E9A4698CF910895CF93873008F041C0F4
:100740008091000190910101892B09F043C064E67A
:1007500070E080E40E94DE04909301018093000128
:10076000892B11F0C0E027C064E670E083E10E94AD
:1007700035059093010180930001892B99F764E678
:1007800070E081E40E94DE049093010180930001F7
:10079000892B41F784E690E00E94650597FF05C02C
:1007A0009093010180930001DDCFC82FC095109276
:1007B00001011092000184E690E00E948A058C2FCE
:1007C0000AC09FB18FB1807F869586959370892BE3
:1007D000809501C080E0CF910895089508950C940C
:1007E000EE030E941C0690E09093010180930001AB
:1007F0000E9438030E94310327EC31E0EBE1F2E084
:100800004EE04E0F119280E090E0D901A80FB91F81
:100810001C92019686309105C1F72A5F3F4F4E1317
:10082000F1CF0C9443070E941C0690E090930101C5
:10083000809300010E9438030E943103EBE1F2E053
:100840008EE08E0F11928E13FDCF089526E0829FC9
:10085000C0011124FC01E953FE4F20E030E080E0AC
:1008600041E050E09081992319F09150908307C0A6
:10087000BA01022E01C0660F0A94EAF7862B2F5F99
:100880003F4F31962630310569F7089596E0699F0C
:10089000B001112420E030E090E04FE0FC01022E96
:1008A00002C0F595E7950A94E2F7E0FF06C0F9016A
:1008B000E60FF71FE953FE4F40832F5F3F4F26306F
:1008C000310561F70895CF92DF92EF92FF920F9377
:1008D0001F93CF93DF938091000190910101892BA9
:1008E00091F08091C6018F5F8093C60181110BC08A
:1008F0000E941C0690E09093010180930001892BD7
:1009000011F40E94AE058BE1C82E82E0D82E92E24F
:10091000E92E92E0F92EC0E08C2F0E94470307E0F9
:100920000C0F802F0E9447038C2F0E942604182F43
:100930008C2F0E949C03F6019081D12FD095D92352
:100940008123D82B6C2F8D2F89270E944604F60116
:10095000D1936F01802F0E942604182F802F0E94B0
:100960009C03F7019081D12FD095D9238123D82BD7
:10097000602F8D2F89270E944604F701D1937F01B4
:100980000E943803CF5FC73039F60E944B0781E0E1
:10099000DF91CF911F910F91FF90EF90DF90CF905B
:1009A0000895E82FF0E0E55EFD4F808108950895F9
:1009B0001092B9008CE08093B8000895EF92FF92F6
:1009C0000F931F93CF93DF93182FEB011092BC006E
:1009D00084EA8093BC000E94D11A7C019091BC00F3
:1009E00097FD0EC0CF3F8FEFD807C1F30E94D11AF9
:1009F0008E199F098C179D0788F38EEF9FEF2EC0ED
:100A00009091B900987F983041F09091B900987F0B
:100A1000903119F08FEF9FEF21C01093BB0084E855
:100A20008093BC000E94D11A8C019091BC0097FD6C
:100A30000CC0CF3F8FEFD807C1F30E94D11A801BA3
:100A4000910B8C179D0788F3D8CF8091B900887FD0
:100A5000883111F08034F1F680E090E0DF91CF91A1
:100A60001F910F91FF90EF9008950F931F93CF93D5
:100A7000DF93EB018093BB0084E88093BC000E946D
:100A8000D11A8C019091BC0097FD0EC0CF3F8FEF23
:100A9000D807C1F30E94D11A801B910B8C179D07B8
:100AA00088F38EEF9FEF0CC02091B900287F81E082
:100AB00090E0283211F480E090E0919581959109C1
:100AC000DF91CF911F910F9108950F931F93CF93B3
:100AD000DF93EC0184E88093BC000E94D11A8C0162
:100AE0009091BC0097FD0EC0CF3F8FEFD807C1F3A8
:100AF0000E94D11A801B910B8C179D0788F38EEFF3
:100B00009FEF03C08091BB0090E0DF91CF911F91D8
:100B10000F9108950F931F93CF93DF93EC0184E916
:100B20008093BC000E94D11A8C019091BC0094FF6C
:100B30000EC0CF3F8FEFD807C1F30E94D11A801BA0
:100B4000910B8C179D0788F38EEF9FEF02C080E01A
:100B500090E0DF91CF911F910F91089556985E9884
:100B600025982D9826982E9827982F988FEF90E00B
:100B7000909389008093880090938B0080938A00E3
:100B800090938D0080938C00259A2D9A2FEF80E70B
:100B900092E0215080409040E1F700C00000269A8A
:100BA0002E9A2FEF80E792E0215080409040E1F7AD
:100BB00000C00000279A2F9A2FEF80E792E0215083
:100BC00080409040E1F700C0000025982D982FEF5D
:100BD00080E792E0215080409040E1F700C00000A3
:100BE00026982E982FEF80E792E021508040904089
:100BF000E1F700C0000027982F9856985E98259836
:100C00002D9826982E9827982F98089589EA8093F2
:100C1000800089E08093810024982C983F988AB1C5
:100C20008F7C8AB96E98479A8BB180638BB9769A1C
:100C30000E94AE050C94ED0380E290E090930101D8
:100C4000809300018091290281110EC00E94D80476
:100C500081E0809329022FEF83ED90E321508040C3
:100C60009040E1F700C0000064E670E080E40E947C
:100C7000DE049093010180930001892B09F050C09C
:100C800064E670E080E00E94350590930101809356
:100C90000001892B09F044C064E670E080E00E9406
:100CA00035059093010180930001892BC9F564E615
:100CB00070E08FE30E94350590930101809300015D
:100CC000892B71F584E690E00E948A0564E670E065
:100CD00080E40E94DE049093010180930001892B3F
:100CE000F9F464E670E08CE00E9435059093010110
:100CF00080930001892BA1F464E670E080E00E94FB
:100D000035059093010180930001892B49F464E635
:100D100070E08FE30E9435059093010180930001FC
:100D200084E690E00E948A05809100010895611197
:100D300008C0FC018281882321F086E691E00E94B0
:100D4000400780E090E008958F3D9C4541F4FB0111
:100D50008281882329F00E94BD1980E0089581E0F6
:100D60000895CF92DF92EF92FF926B017C010E9477
:100D7000FF1856985E9825982D9826982E982798B3
:100D80002F9890E0FC013197E730F105A8F4E35A81
:100D9000FF4F0C94FB26259A2D9A0EC0259A2D9A6A
:100DA000269A2E9A09C0259A2D9A04C0259A2D9A22
:100DB000269A2E9A279A2F9AC701B601FF90EF9094
:100DC000DF90CF90089581E008950C94A406CF930E
:100DD000282F30E0F901E356FC4FC491F901E35E9E
:100DE000FB4F2491222359F081EE0E94330E8C2F69
:100DF0000E94330E8C2F0E944C0F81EE04C08C2F6A
:100E00000E94330E8C2FCF910C944C0F0F931F9395
:100E1000CF93DF93EC01062FFE018491882359F1D3
:100E20009E012F5F3F4F813041F4E901F901149198
:100E3000812F0E94330E812F0DC0823031F4E901E1
:100E4000F90184910E94330E0AC0833031F4E90124
:100E5000F90184910E944C0F02C00E94E70621967E
:100E6000802F8823C9F2EFE9FFE03197F1F700C046
:100E700000008150F6CFDF91CF911F910F9108951F
:100E800060E00C9406070E944F19811102C00E9475
:100E9000BD190C9406060C94EF03282F2F7041F017
:100EA000822F90E02A3010F44D9608950697089509
:100EB00087E290E0089508950C945B070C945C071A
:100EC00008950E94BF120E9460072FEF84E39CE008
:100ED000215080409040E1F700C000000C942D1B91
:100EE000FF920F931F93CF93DF938C01FC01C0817E
:100EF000D18180915602811113C08281882349F0EB
:100F0000CE010E94F217F82E682FCE010E9495178D
:100F100004C0CE010E94C517F82EBE018F2D04C05B
:100F2000CE010E94F217BE010E940909EC01B8012E
:100F30000E94E506882309F464C1B801CE010E942D
:100F4000720B882309F45DC1C63DFCE5DF0761F53E
:100F5000F8018281882351F010922F020E94D11A49
:100F600090932C0280932B0282E03BC00E94C31816
:100F700085FF05C081E080932F028093300280912D
:100F80002F0281110FC080912B0290912C020E94A0
:100F9000DD1A883C910530F486E20E94330E86E229
:100FA0000E944C0F82E02FC0C73D8CE5D80770F13E
:100FB000CB3D8CE5D80709F4D6C008F0DBC0C73DAF
:100FC000FCE5DF0709F0F4C0F8018281882361F0B5
:100FD000109230020E94D11A90932E0280932D021B
:100FE00080E20E94B40F0DC10E94C31881FF05C0AA
:100FF00081E080932F028093300280913002882319
:1010000009F4C5C080E20E94BB0FFBC0C531ECE50E
:10101000DE0708F07EC0C230FCE5DF0708F452C0EE
:10102000F8018281882309F459C00E944F19811167
:1010300002C00E94BD190E94621990E090932F0394
:1010400080932E03FE01E350FC45E231F10530F4BC
:10105000EC59FF4F80912E030C94FB2680912E03B8
:10106000816027C0826025C0846023C0806121C068
:1010700080621FC080641DC080681BC0846088605F
:1010800018C08E7F16C08D7F14C08B7F12C08F7EDC
:1010900010C08F7D0EC08F7B0CC08F770AC08B7FF6
:1010A000877F07C087FB222720F991E0922790FBDA
:1010B00087F980932E0380912E030E9466190E9467
:1010C000BF129FC0C1158CE5D80781F0C130DC4547
:1010D000A9F081E080932F0280933002C801DF9154
:1010E000CF911F910F91FF900C94E306F80182813C
:1010F000882309F486C00E94610783C0F8018281B9
:10110000882309F47EC08091F50281608093F50206
:1011100078C0C631DC45E9F60E94C318282FF801D3
:1011200082814091020150910301882379F02A7A4B
:1011300091E009F490E090932A02911102C069E2D3
:1011400001C065E3CA010E94241A0AC080912A02E4
:10115000811102C069E201C065E3CA010E942F1A31
:101160000E9490184EC0F8018281882309F449C07A
:1011700080E00AC0CC3DECE5DE07D1F5F8018281C4
:10118000882309F43EC082E00E941E223AC080916A
:101190002D0290912E020E94DD1A883C910508F0E4
:1011A00031CF87E20E94330E87E20E944C0F2ACF94
:1011B000C83DDC4509F08DCFF8018281811108CF4F
:1011C0008091300281111ECF80912D0290912E02CC
:1011D0000E94DD1A883C910508F014CF80E20E943D
:1011E000BB0F88E20E94330E88E20E944C0F09C0B8
:1011F000CD3DDC4509F06DCFF801828181110E945F
:10120000BD1980E0DF91CF911F910F91FF9008955C
:10121000089596E0799FF001112494E5899FE00DEF
:10122000F11D1124E60FF11DEE0FFF1FEB55FE4FD0
:10123000859194910895880F991FFC01EF55FE4FF9
:10124000859194910895CF93DF930E9409090E949C
:10125000D20AEC01811520E59207F0F5811530E402
:10126000930708F021C1883E910500F5803E910565
:1012700008F094C1883A910570F4853A910508F018
:10128000A3C08130910509F489C108F440C10497D5
:1012900008F084C13CC18D3B910508F4A0C0803C9E
:1012A000910508F434C1805C9109F0C08115904229
:1012B00058F4C11581E0D80708F070C1C03FD105CE
:1012C00008F425C1D0656AC1C11590E3D90708F0BB
:1012D000E1C0CE019F70DAC0811525E5920708F0C4
:1012E00043C0811534E5930708F0F5C0811542E548
:1012F000940708F5C11581E5D80708F0D8C02C2F50
:10130000237081E090E002C0880F991F2A95E2F7D0
:101310009C689E0174E0369527957A95E1F72370D5
:10132000922BCF70C695C69540E2C49FE001112470
:10133000C82BD92B33C1869586959E012370332700
:10134000C115D34508F0B8C040E2849FC001112404
:10135000C1E0D0E002C0CC0FDD1F2A95E2F78C2B54
:101360009D2BEC01DC681AC181152AE5920798F4DF
:10137000811539E5930708F0B9C08115964508F441
:10138000AFC0C11588E5D80708F4C1C0DC2FCC2751
:10139000C06FD06A03C1C1159BE5D90708F4B7C077
:1013A000C1152CE5D20708F4AFC0CE0190568115C7
:1013B000904208F0ACC08D2F8F710E944F0BDD273B
:1013C000D0628F71D82BEAC0853A910509F4A2C08A
:1013D000863A910509F0A1C0C2E8D0E4DFC0883A9E
:1013E000910509F49DC0893A910509F49CC08A3A97
:1013F000910509F49BC08B3A910509F49AC08C3A87
:10140000910509F499C08B3B910509F498C08C3B78
:10141000910509F497C08D3A910509F496C0803B77
:10142000910509F495C08E3A910509F494C08F3A5C
:10143000910509F493C0813B910509F492C0823B68
:10144000910509F491C0833B910509F490C0843B58
:10145000910509F48FC0853B910509F48EC0863B48
:10146000910509F48DC0873B910509F48CC0883B38
:10147000910509F48BC0893B910509F48AC08A3B28
:10148000910509F489C0C0E0D4E488C00E941B091A
:10149000EC0184C0CE019927D3FF03C0EC01D86CC6
:1014A0007DC0EC01D06C7AC0DF70D06A77C0DC2FD1
:1014B000CC27C16FD06A72C040E2849FC001112462
:1014C000C1E0D0E002C0CC0FDD1F2A95E2F7C82BA7
:1014D000D92BDA6863C0D82FCC27C46FD06A5EC01E
:1014E000CF71DD27DC2FCC27D06258C08F70806E83
:1014F00090E0906A24E0D695C7952A95E1F7CF70E1
:101500009C013C2BE9014AC0DD27D06647C0C0E002
:10151000D0E044C0C1E8D0E441C0C3E8D0E43EC05C
:10152000C2EED4E43BC0C9EED4E438C0CAEED4E481
:1015300035C0C5EBD4E432C0C6EBD4E42FC0C3EB56
:10154000D4E42CC0C4EBD4E429C0C7EBD4E426C057
:10155000CCECD4E423C0CDECD4E420C0C3E8D5E483
:101560001DC0CAE8D5E41AC0C2E9D5E417C0C4E971
:10157000D5E414C0C1E2D6E411C0C3E2D6E40EC083
:10158000C4E2D6E40BC0C5E2D6E408C0C6E2D6E4A5
:1015900005C0C7E2D6E402C0CAE2D6E4CE01DF91BC
:1015A000CF9108958238910549F1B0F481339105C6
:1015B00009F458C048F48932910509F44EC08A32C2
:1015C000910509F454C008958533910509F440C08C
:1015D0008933910599F00895833E910529F138F4F6
:1015E000803E910591F0823E9105A1F00895863EDE
:1015F0009105F9F0873E910531F1089520912E0370
:1016000020FD3AC021FD38C0089580912E0380FD51
:1016100035C032C080912E0382FF32C080912E03EC
:1016200084FD30C083EE39C080912E0382FD28C036
:10163000F5CF80912E0383FF27C080912E0384FD78
:1016400021C087EE2AC080912E0383FD1DC0F5CFF7
:1016500080912E0385FD1AC01BC080912E0385FD4D
:1016600017C014C080912E0386FD14C015C0809150
:101670002E0386FD11C00EC080EE0FC089E30DC0A1
:1016800082EE0BC080E009C086EE07C089E205C08B
:1016900085E303C08AE201C081E390E00895909160
:1016A0002E0392FF0DC0282F2871283019F4877F50
:1016B000846006C0282F2471243011F48B7F886049
:1016C00093FF0DC0282F2871283119F4877E84617B
:1016D00006C0282F2471243111F48B7E886194FD7B
:1016E000877E0895CF93DF93813020E8920778F0CA
:1016F000FB012281222359F0EC010E948B0B0E94F6
:10170000990BCE019F770E94610C0E94150C81E01D
:10171000DF91CF91089580913102811109C08CE051
:1017200090E00E9415278093320281E0809331027D
:101730000895E0910201F0910301808180932703D5
:1017400081FF03C081EE0E944C0F8091270385FF2B
:1017500003C085EE0E944C0F8091270380FF03C0D9
:1017600080EE0E944C0F8091270384FF03C084EE1B
:101770000E944C0F8091270382FF03C082EE0E94DB
:101780004C0F8091270386FF03C086EE0E944C0F0A
:101790008091270383FF03C083EE0E944C0F80914A
:1017A000270387FF03C087EE0E944C0F809132020F
:1017B000823001F1A8F48823C9F0813079F580EEF8
:1017C0000E94330E81EE0E94330E88E10E94330E98
:1017D00088E10E944C0F81EE0E944C0F80EE1CC0ED
:1017E000843081F08530D1F486EE01C082EE0E9413
:1017F000330E14C082EE0E94330E87E50E94330E32
:1018000087E50AC086EE0E94330E86EE0E944C0FDA
:1018100088E10E94330E88E10E944C0F8FE39CE91F
:101820000197F1F700C000000895809132028130E5
:1018300049F030F0823021F0853051F486EE06C058
:1018400082EE04C08CE20E94330E8CE20E944C0FA8
:101850008091270381FF03C081EE0E94330E8091A7
:10186000270385FF03C085EE0E94330E8091270376
:1018700080FF03C080EE0E94330E8091270384FF17
:1018800003C084EE0E94330E8091270382FF03C0C1
:1018900082EE0E94330E8091270386FF03C086EEFE
:1018A0000E94330E8091270383FF03C083EE0E94C2
:1018B000330E8091270387FF03C087EE0C94330E0D
:1018C0000895EF92FF921F93CF93DF937C01CCE0BA
:1018D000D0E097010C2E02C0369527950A94E2F7C6
:1018E000122F1F70812F0E944D070E94330E812FEF
:1018F0000E944D070E944C0F2497CC3F8FEFD807D2
:1019000041F7DF91CF911F91FF90EF900895909351
:101910003802809337020895E0913702F09138023F
:10192000309721F00190F081E02D099480E0089536
:10193000E0913702F0913802309799F0209113012D
:10194000222359F020912E0327FF07C0DC012C91A0
:1019500011962C93119725E02C930280F381E02DB2
:1019600009940895E0913702F0913802309739F0E8
:1019700022E0DC012C930480F581E02D0994089588
:1019800020913502309136028217930771F09093BF
:10199000360280933502E0913702F0913802309799
:1019A00021F00680F781E02D0994089520913302FB
:1019B000309134028217930771F090933402809330
:1019C0003302E0913702F0913802309721F0008421
:1019D000F185E02D0994089585B7806885BF85B7A6
:1019E000806885BF089508950E94EC0C0C94F30C58
:1019F00081E008950E94C81A0E94F1030C945F1BB5
:101A0000CF92DF92EF92FF920F931F93CF93DF93CA
:101A1000CDB7DEB72B970FB6F894DEBF0FBECDBFA4
:101A20000E9463040E94F80C811111C08FEF89831A
:101A30008A831B820E94D11A8160782F9D838C83B8
:101A400049815A816B818D810E94E40D56C08AE3E1
:101A5000C82E82E0D82E00E010E0E02E802F0E94F9
:101A6000D104F60141916F01F42EF82631F40F5F95
:101A70001F4F0E30110589F7D9CF9091F50291FFD4
:101A800004C08B870E94D7048B8520E030E04F2D67
:101A900050E0922FBA01022E02C0759567950A9404
:101AA000E2F760FF24C02E83EF8221E030E069017D
:101AB00002C0CC0CDD1C9A95E2F790E08C219D21B0
:101AC000892B09F420E028870E94D11A8160782FA1
:101AD0009A8789874E815F8168858A850E94E40D97
:101AE000F801E65CFD4F8081C826C08206C02F5FEA
:101AF0003F4F2630310569F6BACF0E94F21C109193
:101B000039020E948C0C1817A1F00E948C0C809353
:101B100039022B960FB6F894DEBF0FBECDBFDF9112
:101B2000CF911F910F91FF90EF90DF90CF900C9489
:101B30005E072B960FB6F894DEBF0FBECDBFDF91C8
:101B4000CF911F910F91FF90EF90DF90CF9008956C
:101B5000DC0111962C9111978C91682F70E041E077
:101B600050E001C0440F8A95EAF712968C911297C3
:101B700030E0882329F0809158028823E9F006C0DC
:101B8000F901E85BFD4F90819423B1F086E0829FDC
:101B9000F001839FF00D1124E60FF71FEE0FFF1FDA
:101BA000EC5EFE4F808191818D939C93F901E85BFF
:101BB000FD4F8081482B06C0F901E85BFD4F409541
:101BC0008081482340830895CF93DF93CDB7DEB75C
:101BD0002B970FB6F894DEBF0FBECDBF942F4F8367
:101BE000252F588769877A878B874A855B85452BA0
:101BF00021F02F3F09F59F3FF9F4DE01119686E0B1
:101C0000FD0111928A95E9F785E0FE013796019072
:101C10000D928A95E1F749815A816B817C818D8192
:101C20009E810E9466152B960FB6F894DEBF0FBEFC
:101C3000CDBFDF91CF910895CE0107960E94A80DE8
:101C4000DCCFFC01808191810E94311892959F70B8
:101C5000963041F48091580291E089278093580290
:101C6000909357020895CF93DF931F92CDB7DEB7BD
:101C7000882309F40DC1682F8238C1F40E948C0CAE
:101C800081FD06C169E380910201909103010E94E8
:101C9000241A0E9490182FEF81EE94E0215080408A
:101CA0009040E1F700C0000069E319C0833811F5E6
:101CB0000E948C0C80FDECC063E580910201909144
:101CC00003010E94241A0E9490182FEF81EE94E0E5
:101CD000215080409040E1F700C0000063E5809112
:101CE0000201909103010E942F1A0F90DF91CF9172
:101CF0000C9490188438C1F40E948C0C82FDC8C0EA
:101D000067E480910201909103010E94241A0E94CD
:101D100090182FEF81EE94E0215080409040E1F741
:101D200000C0000067E4DBCF8CEF860F813A70F4CF
:101D3000862F69830E94281F69818111A9C0809123
:101D40000201909103010E94241ACFCF80E2860FF6
:101D5000883048F4677081E001C0880F6A95EAF71F
:101D60000E94C618C2CF8BE5860F833088F4653A8F
:101D700029F0663A31F083E890E005C081E890E010
:101D800002C082E890E00F90DF91CF910C94C00CDC
:101D900088E5860F853108F071C0683A61F1693ACB
:101DA00069F16A3A71F16B3A79F16C3A81F16B3B06
:101DB00089F16C3B91F16D3A99F1603BA1F16E3A7A
:101DC000A9F16F3AB1F1613BB9F1623BC1F1633BFB
:101DD000C9F1643BD1F1653BD9F1663BE1F1673B69
:101DE000E9F1683BF1F1693BF9F16A3B09F43FC065
:101DF00080E090E03EC082EE90E03BC089EE90E053
:101E000038C08AEE90E035C085EB90E032C086EBBA
:101E100090E02FC083EB90E02CC084EB90E029C0D1
:101E200087EB90E026C08CEC90E023C08DEC90E036
:101E300020C083E891E01DC08AE891E01AC082E9E1
:101E400091E017C084E991E014C081E292E011C0F2
:101E500083E292E00EC084E292E00BC085E292E061
:101E600008C086E292E005C087E292E002C08AE202
:101E700092E00F90DF91CF910C94D60C603F40F030
:101E8000862F0E94FA1B0F90DF91CF910C94E71CD4
:101E90000F90DF91CF910895882309F464C08238B0
:101EA00079F40E948C0C81FF5EC069E3809102018D
:101EB000909103010E94241A0E94901869E310C0B7
:101EC0008338B1F40E948C0C80FF4DC063E5809193
:101ED0000201909103010E94241A0E94901863E568
:101EE00080910201909103010E942F1A0C94901886
:101EF000843879F40E948C0C82FF35C067E48091AD
:101F00000201909103010E94241A0E94901867E434
:101F1000E7CF9CEF980F913A10F4682FE1CF90E251
:101F2000980F983050F4877091E001C0990F8A950E
:101F3000EAF7892F0E94CC18D9CF9BE5980F9330F0
:101F400020F480E090E00C94C00C98E5980F953157
:101F500020F480E090E00C94D60C803F20F00E94AA
:101F6000621C0C94E71C0895882321F00E94C61877
:101F70000C9490180895882321F00E94CC180C949A
:101F8000901808958F929F92AF92BF92DF92EF9236
:101F9000FF920F931F93CF93DF937C01D62FC72F10
:101FA000FC01058102950F70128111110E94E31846
:101FB0000E948918882379F0112369F080E28D0F3F
:101FC000883048F082E00E9472180E94891891E0DF
:101FD000D82ED92601C0D12CAC2EA2948FE0A822F5
:101FE000B12CF501EA58FF4F0C94FB268C2F807F13
:101FF000CF70882311F0C295C07F112399F0CC23B4
:1020000009F4C8C180E28D0F883010F0D11104C0EE
:102010008C2F0E94C61803C08C2F0E94D6180E94D5
:102020009018B8C18D2F0E944C0FCC2309F42EC2FA
:1020300080E28D0F883010F0D11104C08C2F0E94E7
:10204000CC1803C08C2F0E94DC180E9490181EC26E
:102050008C2F807FCF70803211F0C295C07FDD233E
:1020600019F0D130C9F021C0112371F0002341F0E3
:10207000013031F40E94FC188C2B0E94F61806C225
:102080000E94FC188C2B3FC1002319F0013009F489
:10209000FDC10E94F91811C0112321F0023008F08F
:1020A000F5C107C00111F2C108C0112321F00111CF
:1020B00071C18C2F28C101117EC18C2F2AC18C2F98
:1020C00086958695837090E0009719F0019761F0EE
:1020D000DDC1112321F08D2F9C2F937002C080E071
:1020E00090E00E94C00CE2C1112321F08D2F9C2FA3
:1020F000937002C080E090E00E94D60CD7C11123FB
:10210000F9F0D53F51F0D63F71F0D43FA9F480915A
:1021100028039091290381600BC08091280390913E
:102120002903826005C0809128039091290384606F
:1021300090932903809328038D2F0E94FA1B1EC0C1
:10214000D53F51F0D63F71F0D43FA9F480912803D8
:10215000909129038E7F0BC08091280390912903D1
:102160008D7F05C080912803909129038B7F9093E8
:102170002903809328038D2F0E94621C0E94E71C74
:1021800095C18C2F837009F050C011118BC18D2F18
:10219000829586958770880F880F9D2F9F70892E56
:1021A000912CA12CB12C082E04C0880C991CAA1CBF
:1021B000BB1C0A94D2F7D4FF14C00FE010E020E05B
:1021C00030E0B901A80104C0440F551F661F771FF6
:1021D0008A95D2F7CB01BA0160957095809590955C
:1021E00003C060E070E0CB01C695C695C370D0E037
:1021F000C230D10561F0C330D10581F06829792959
:102200008A299B29219771F00E94AB164BC168293E
:1022100079298A299B290E94BD1644C10E94AB16C8
:10222000C501B4010E9499163DC1112319F08C2FEC
:10223000817001C08695882309F434C18D2F829561
:1022400086958770880F880F9D2F9F70892E912CFF
:10225000A12CB12C082E04C0880C991CAA1CBB1CF4
:102260000A94D2F7D4FF14C00FE010E020E030E071
:10227000B901A80104C0440F551F661F771F8A9536
:10228000D2F7CB01BA01609570958095909503C007
:1022900060E070E0CB01C695C695C3704C2F50E04E
:1022A0004230510569F04330510589F06829792998
:1022B0008A299B294130510571F00E947017F2C0A4
:1022C000682979298A299B290E948217EBC00E94DC
:1022D0007017C501B4010E945E17E4C08D2F90E015
:1022E000FC01E05EF109E531F10508F04FC0EA5765
:1022F000FF4F0C94FB26DF708C2F8F71112331F070
:102300000E94F7168D2F0E94B40FC0C00E941817AC
:102310008D2F0E94BB0FBAC0112339F00111B6C036
:102320008C2F8F710E943D17B1C0023008F0AEC0F3
:10233000F7CF112339F08C2F8F710E94F716A6C0AA
:102340001123C9F38C2F8F710E9418179FC011237E
:1023500029F08C2F8F710E94E21698C00E94DD1622
:1023600095C0112349F0CF718C2F0E94F71663E0BE
:102370008C2F0E9469188AC081E00E947218023076
:1023800008F484C082E00E94721880C0112331F0EA
:10239000002389F28D2F0E94330E78C0002391F222
:1023A000D93349F45FEF67EE73E0515060407040FD
:1023B000E1F700C000008D2F0E944C0F67C04C2F2A
:1023C0004F706D2FC7010E9497060E940A166EC0BB
:1023D000D23FB1F028F4D03F49F0D13FF9F028C006
:1023E000D43FB9F058F0D53F71F022C0112309F461
:1023F00047C09091580281E0892708C081E01827E2
:10240000109358023DC011113BC081E080935802E7
:1024100037C0111135C01092580232C0112329F073
:1024200080915702882329F329C0002311F328C083
:10243000809157020023C1F0882341F09091580207
:1024400081E0892780935802109257028D2F112323
:1024500019F00E94330E14C00E944C0F86E0F70161
:1024600011928A95E9F70CC0882351F0111108C028
:102470009091580281E08927809358021092570268
:102480004C2F4F706D2FC7010E940809F8E0AF165E
:10249000B10441F05CF04AE0A41AB10852E0A5167C
:1024A000B10420F40E948C0C0E945E07DD20E1F054
:1024B0000E94651880FD18C0F70112820E945F1803
:1024C0000E94F716C7010E9480120E945F18DF91D8
:1024D000CF911F910F91FF90EF90DF90BF90AF9041
:1024E0009F908F900C941817DF91CF911F910F91AF
:1024F000FF90EF90DF90BF90AF909F908F900895E6
:102500000F931F93CF93DF93EC01888199812B81E7
:102510003C81232BB9F09F3F11F48F3F99F0CE01FE
:102520000E947007882371F0688179818A810E94F6
:102530003C188C010E9494170E949616B801CE0197
:102540000E94C20FDF91CF911F910F9108950E94B9
:10255000E3180E94F31880910201909103010E94F8
:102560003A1A0E9490180E948D1D0E94E71C80E07C
:1025700090E00E94C00C80E090E00C94D60C0E9489
:10258000D3180C94A7120E943118E92FE295EF702E
:10259000F0E03297EE30F105B0F4E556FF4F0C94C1
:1025A000FB26803F91F018F4803E68F40EC0843F13
:1025B00051F40BC0803E48F0813F29F406C093FBE4
:1025C000882780F9089580E0089581E00895CF93E9
:1025D000DF9300D000D01F92CDB7DEB70F900F90E1
:1025E0000F900F900F90DF91CF910895CF93DF93CD
:1025F00000D000D000D0CDB7DEB726960FB6F89445
:10260000DEBF0FBECDBFDF91CF9108951F93CF9353
:10261000DF93C091590216E080915A02C81799F0D1
:10262000D0E01C9FF0011D9FF00D1124E55AFD4FD5
:102630004081518162817381848195810E94F6126B
:102640002196C770E9CFDF91CF911F9108954091F6
:102650008B0250918C0260918D0270918E0280915C
:102660008F02909190020C94F612809190028295C4
:102670008F7009F054C080918D02882309F44FC0F7
:1026800080915902A0915A0260918B0270918C0244
:1026900040918E0250918F02B6E08A1709F43FC034
:1026A00090E041155105C1F17F3F11F46F3FA1F159
:1026B000B89FF001B99FF00D1124E55AFD4F21811B
:1026C00072132AC02081621327C02281211124C0E5
:1026D000238134812417350710F421503109241B3C
:1026E000350B283C3105C0F4209190022F702061F9
:1026F0002093900226E0289FF001299FF00D1124DD
:10270000E05AFD4F80818F70806180838BE892E07A
:102710000E9480120C94061301968770BECF089514
:10272000CF92DF92EF92FF920F931F93CF93DF939D
:10273000CDB7DEB762970FB6F894DEBF0FBECDBF40
:102740008C0185E0F801DE011D9601900D928A95BD
:10275000E1F7D8014C9111965C91119712966C910A
:1027600012971396CD90DC90149730918B02709154
:102770008C0280918E0290918F02009709F46BC1B8
:102780007F3F19F43F3F09F466C1E0908D02EE20CF
:1027900009F4C0C020919002C816D90628F0F601AD
:1027A000E81BF90BCF0104C0809590958C0D9D1D01
:1027B000FF24F394883C910578F0F12C207F09F0F8
:1027C000C6C07C2DD98AC88A89890E94E7128BE805
:1027D00092E00E948012B1C0822F807F09F046C033
:1027E000751314C0341312C0611110C02F70206112
:1027F000209390020E9427138BE892E00E9480129F
:1028000080919002D80115968C932EC0CD2819F195
:102810005F3F11F44F3FF9F0F62E61111CC080911B
:10282000590220915A0236E0821709F45AC090E00A
:10283000389FF001399FF00D1124E55AFD4F718149
:10284000571306C07081471303C07281711103C012
:1028500001968770E9CFF62E662309F427C180918F
:102860009002816080939002F12C20C1751308C002
:10287000341306C0611104C080919002D801C3C016
:102880004D875E878D859E856A8B0E94C3126A89FB
:102890008823E1F16623D1F120919002822F829565
:1028A0008F7090E0029774F080918B0290918C026F
:1028B00098878F831986DB86CA862C87CE01079678
:1028C0000E94801286E0F801ABE8B2E001900D9220
:1028D0008A95E1F70E9435130E942713FF24F39491
:1028E000E5C04D875E878D859E850E943118292F12
:1028F00022952F7030E0223031050CF0CBC09F7054
:1029000009F0C5C0805E883008F4D0C0C8010E94BC
:102910008012E4CFC816D90608F453C0F601E81BAC
:10292000F90BCF01883C910508F450C0F12C7C2DA7
:10293000D98AC88A89890E94E712EBE8F2E086E02A
:10294000DF011D928A95E9F70E942713AFC0751326
:1029500014C0341312C0611110C080919002F801AC
:102960008583C8010E94801286E0EBE8F2E0DF0177
:102970001D928A95E9F7FE2C99C04D875E878D855B
:102980009E856A8B0E94C3126A89882309F4BECF90
:10299000662309F4BBCF20919002822F82958F701D
:1029A00090E002970CF48ECF80918B0290918C0274
:1029B0009A8389831B82DD82CC822E83CE0101968D
:1029C0007FCF809590958C0D9D1DACCFF62E662304
:1029D00009F49CCF75132EC034132CC020919002A3
:1029E00020FD1FC0822F82958F70D9F0D8011596D7
:1029F0002C9315978F3049F08F5F982F9295907F89
:102A0000822F8F70892B15968C93C8010E9480129B
:102A100086E0F801ABE8B2E001900D928A95E1F70B
:102A200093CF86E0F801ABE8B2E001900D928A9571
:102A3000E1F73CC04D875E878D859E850E94C3125D
:102A4000811140CF80919002816080939002C801F3
:102A50000E9480122BC0662309F458CF4D875E87F1
:102A60008D859E850E94C312F82E882309F44ECFCF
:102A700086E0F801ABE8B2E001900D928A95E1F7AB
:102A80008BE892E00E94210E0E9435135DCF8111E8
:102A900039CF0CC0243031050CF038CF9F7009F4C9
:102AA00031CFF8019581907F09F02CCF8F2D629660
:102AB0000FB6F894DEBF0FBECDBFDF91CF911F914F
:102AC0000F91FF90EF90DF90CF9008951F93CF93D9
:102AD000DF93CDB7DEB72C970FB6F894DEBF0FBEED
:102AE000CDBF4F83588769877A878B879C87CE01B4
:102AF00007960E949013882369F08F8198852A8514
:102B00003B85232BF1F19F3F09F063C08F3F09F014
:102B100060C037C086E0FE013796DE011196019055
:102B20000D928A95E1F76F817885EA85FB8530976C
:102B300041F17F3F11F46F3F21F120915A0230E0C3
:102B4000C9010196877099274091590250E0841776
:102B5000950709F447C069837A83FD83EC8396E087
:102B6000929FD001939FB00D1124A55ABD4FFE0135
:102B7000319601900D929A95E1F780935A020E9446
:102B8000061316E08091590290915A028917C1F1FB
:102B9000189FC0011124855A9D4F0E9490138823CD
:102BA00079F1E09159021E9FF0011124E55AFD4F81
:102BB0004081518162817381848195810E94F612E6
:102BC0008091590290E0019687709927809359026D
:102BD000D9CF4F81588569857A858B859C850E94E0
:102BE000F612CFCF0E94BF1210925A0210925902D1
:102BF000EBE8F2E086E0DF011D928A95E9F7C1CFAC
:102C00002C960FB6F894DEBF0FBECDBFDF91CF91EB
:102C10001F910895EF92FF920F931F93CF93DF932D
:102C20008C01892B09F46CC0F12CEE24E394E801AB
:102C30002196F8018491843740F4843008F051C023
:102C4000813081F0823019F15BC0853709F444C0CE
:102C5000A8F19CE7980F903708F052C08F770E9438
:102C60004C0F41C00E5F1F4FFE01C49180E28C0FDC
:102C7000883048F4C7708E2D01C0880FCA95EAF7D6
:102C80000E94E61814C08C2F0E94330E2DC00E5FD8
:102C90001F4FFE01C49180E28C0F883058F4C7703A
:102CA0008E2D01C0880FCA95EAF70E94EC180E9489
:102CB00090181AC08C2F0E944C0F16C00E5F1F4F29
:102CC000FE01C491CC2381F08FE99FE00197F1F7D9
:102CD00000C00000C150F6CF0E5F1F4FFE01F49000
:102CE00003C00E94330E8E018F2D882309F49FCFDD
:102CF000EFE9FFE03197F1F700C000008150F5CF18
:102D0000DF91CF911F910F91FF90EF90089508955B
:102D10000C9487160E9488166093CC027093CD02A3
:102D20008093CE029093CF020C94A71208950C9436
:102D30008A160F931F930091CC021091CD0220911F
:102D4000CE023091CF02602B712B822B932B1F91DF
:102D50000F910C948A160F931F930091CC0210913F
:102D6000CD022091CE023091CF02602371238223C5
:102D700093231F910F910C948A160F931F93009128
:102D8000CC021091CD022091CE023091CF0260276B
:102D90007127822793271F910F910C948A160C9408
:102DA000B1060E94CF166093C8027093C902809347
:102DB000CA029093CB020C94A71260E070E0CB01A2
:102DC0000C94D1160F931F9341E050E060E070E047
:102DD0008A019B0104C0000F111F221F331F8A9517
:102DE000D2F7C901B8011F910F910C94D1160F931E
:102DF0001F9341E050E060E070E004C0440F551FB5
:102E0000661F771F8A95D2F78091C8029091C902F8
:102E1000A091CA02B091CB028A019B01082B192B09
:102E20002A2B3B2BC901B8011F910F910C94D1168D
:102E30000F931F9341E050E060E070E004C0440F46
:102E4000551F661F771F8A95D2F74095509560955C
:102E500070958091C8029091C902A091CA02B09168
:102E6000CB028A019B01082319232A233B23C90192
:102E7000B8011F910F910C94D1160F931F9341E04D
:102E800050E060E070E004C0440F551F661F771FDC
:102E90008A95D2F78091C8029091C902A091CA0286
:102EA000B091CB028A019B01082719272A273B27CB
:102EB000C901B8011F910F910C94D1160F931F9364
:102EC0000091C8021091C9022091CA023091CB0230
:102ED000602B712B822B932B1F910F910C94D11689
:102EE0000F931F930091C8021091C9022091CA024A
:102EF0003091CB0260237123822393231F910F9182
:102F00000C94D1160F931F930091C8021091C9021F
:102F10002091CA023091CB02602771278227932724
:102F20001F910F910C94D1160895292F220F920F03
:102F3000990F890FA82FA695A695A695877051E0A1
:102F400001C0550F8A95EAF785E0A89FD0011124AA
:102F500020E030E070E0F901EA0FFB1FEF56FD4F73
:102F60004081CB01022E02C0969587950A94E2F724
:102F700081709927819584278523842780832F5FFB
:102F80003F4F2530310539F70895292F220F920F31
:102F9000990F890F682F669566956695982F97709B
:102FA00085E0689FB001112440E050E080E0FA0124
:102FB000E60FF71FEF56FD4F208130E0092E02C0CB
:102FC000369527950A94E2F721703327042E01C025
:102FD000220F0A94EAF7822B4F5F5F4F453051056D
:102FE00031F70895CF92DF92EF92FF920F931F93E4
:102FF000CF93DF938C01C090CC02D090CD02E090B3
:10300000CE02F090CF028091C8029091C902A091A7
:10301000CA02B091CB02C82AD92AEA2AFB2ACFE1F8
:10302000D0E0D701C6010C2E04C0B695A7959795A0
:1030300087950A94D2F780FF06C0B8018C2F0E94B2
:103040002309019721F4219760F780E001C08C2FBC
:10305000DF91CF911F910F91FF90EF90DF90CF9074
:103060000895CF93DF93EC010E94F217BE010E94F6
:103070002309DF91CF9108951F93CF93DF93EB0145
:1030800090915602992321F0CB010E94311813C070
:10309000882349F0CB010E94F217182F682FCE0128
:1030A0000E94951704C0CB010E94C517182FBE01BE
:1030B000812F0E942309DF91CF911F910895809164
:1030C000D00285958595859508958091D002877069
:1030D000089598E0899F90011124262B2093D00217
:1030E0000C94F7162091D002809582238093D00211
:1030F000982F977069F430E0482F082E000C550B7C
:103100002417350729F08595859585950C94181712
:1031100008959091D002977081E009F480E00895BD
:10312000E0910201F09103018091F4028083E0912B
:103130000201F091030190818091F302892B808339
:10314000E0910201F091030190818091F202892BBC
:1031500080838091D102882381F0E0910201F09177
:1031600003019081892B808380910201909103015A
:103170000E94BF1981111092D10280910201909199
:1031800003010C94980C8091F40208959091F4023C
:10319000892B8093F402089580959091F4028923FD
:1031A0008093F40208951092F40208959091F3022E
:1031B000892B8093F302089580959091F3028923DF
:1031C0008093F30208951092F30208959091F20211
:1031D000892B8093F202089580959091F2028923C1
:1031E0008093F20208951092F20208958093D10222
:1031F00008951092D10208958091D1020895CF923E
:10320000DF92EF92FF926C01EE24FF24C114D104EF
:10321000E104F10421F0C701B60120E101C020E082
:10322000C72ED82EE92EFF24C114D104E104F104E5
:1032300019F0285FC701B6016B017C0154E0F694D8
:10324000E794D794C7945A95D1F7C114D104E104F7
:10325000F10419F02C5FC701B6016B017C0142E05B
:10326000F694E794D794C7944A95D1F7C114D10442
:10327000E104F10419F02E5FC701B601DC01CB01B6
:10328000B695A79597958795892B8A2B8B2B09F057
:103290002F5F822FFF90EF90DF90CF90089580E016
:1032A00090E00E941D2721E08D3E9E4F09F020E016
:1032B000822F089582E090E00C94152783E090E03F
:1032C0000C94152784E090E00C941527682F84E077
:1032D00090E00C942327AB01BC018FE090E00C94AC
:1032E0003527AB01BC0183E190E00C94352760E009
:1032F00070E0CB010C94711960E070E0CB010E948A
:103300006B190C9477196DEE7EEF80E090E00E94CF
:10331000412760E082E090E00E94232760E083E0A4
:1033200090E00E9423271092CC021092CD021092BE
:10333000CE021092CF0260E084E090E00E9423274A
:1033400060E085E090E00E94232760E086E090E066
:103350000E9423276FEF87E090E00E94232740E040
:1033600050E0BA0188E090E00E94352760E08DE0EF
:1033700090E00E9423270C947C190C948319FC0183
:10338000329680911301882331F080912E0387FFBC
:1033900002C09EE101C096E080E0915028F02191AA
:1033A0002223D9F38F5FF9CF08959C01FC01329657
:1033B0009FEF80E04191461789F09F3F19F441113A
:1033C00001C0982F8F5F8630A9F79F3F39F0F90130
:1033D000E90FF11D97FDFA95628308950895FC01A8
:1033E000329608962081261301C010823196E81784
:1033F000F907C1F70895262F2695269526952E3193
:1034000068F4FC01E20FF11D677021E030E001C0BB
:10341000220F6A95EAF78281282B22830895262FAE
:103420002695269526952E3170F4FC01E20FF11DAC
:10343000677021E030E001C0220F6A95EAF720951D
:10344000828128232283089520911301222329F0C9
:1034500020912E0327FD0C94FB190C94D519209173
:103460001301222329F020912E0327FD0C940F1A1B
:103470000C94EF1920911301FC013296222331F0B4
:1034800080912E0387FF02C08EE101C086E0DF013C
:103490001D928A95E9F7089508950C944C1A0E949C
:1034A0004D1A80913403843049F11092F60220E4E1
:1034B00088E190E00FB6F894A895809360000FBE65
:1034C0002093600080E00E945E070E944D1A83B73F
:1034D000817F846083BF83B7816083BF7894889540
:1034E00083B78E7F83BF0FB6F894A8958091600054
:1034F000886180936000109260000FBE0895089567
:10350000CF930E9413040E9463040E947F1AC0E0BC
:103510008C2F0E94D104811104C0CF5FCE30C1F73F
:1035200001C081E0CF91089508950C94941A0E94EF
:10353000BF120E948C0C0E945E070C94951A1F9279
:103540000F920FB60F9211248F939F93AF93BF9357
:103550008091F602811113C080912A0390912B0370
:10356000A0912C03B0912D034196A11DB11D809314
:103570002A0390932B03A0932C03B0932D03BF91A8
:10358000AF919F918F910F900FBE0F901F90189544
:1035900082E084BD93E095BD9AEF97BD80936E0065
:1035A00008952FB7F89480912A0390912B03A0914E
:1035B0002C03B0912D032FBF0895CF92DF92EF928D
:1035C000FF920F931F932FB7F89440912A035091C5
:1035D0002B0360912C0370912D032FBF6A017B0197
:1035E000EE24FF248C0120E030E0C016D106E20674
:1035F000F30610F4415051099A01281B390BC901F7
:103600001F910F91FF90EF90DF90CF9008957894E5
:103610001F920F920FB60F9211248F939F93AF9327
:10362000BF9380912A0390912B03A0912C03B0911A
:103630002D030196A11DB11D80932A0390932B03A6
:10364000A0932C03B0932D03BF91AF919F918F91C5
:103650000F900FBE0F901F901895F89481E0809303
:10366000E00080E28093D800E9ECF0E010828FE186
:103670009EE40197F1F700C000001DBA10926800A7
:103680001CBC10BE1FBA10927A0010926E001092ED
:103690006F0010927100109272001082ECEBF0E05B
:1036A000108214B817B81AB81DB810BA108215B81D
:1036B00018B81BB81EB811BA0C94003F08950E94A8
:1036C0004F19811102C00E94BD190E945A1980939E
:1036D000F5020E94621990E090932F0380932E03CD
:1036E0000E945E19682F70E080E090E00C949716BD
:1036F0008091FA0280FF0BC06091070185E0689F0E
:10370000B001112475956795759567952BC081FF5C
:1037100009C06091070185E0689FB001112475958B
:10372000679520C082FF07C06091070185E0689F10
:10373000B001112417C09091FB029923D1F0609140
:103740000601961788F72091070185E0289F9001D0
:103750001124929FA001939F500D112470E0CA0183
:103760000E94E7266038710540F46115710539F053
:1037700002C065E070E0862F08958FE7089581E02C
:1037800008958091FA0280FF08C06091050170E001
:10379000759567957595679521C081FF06C0609105
:1037A000050170E07595679519C082FF04C06091AE
:1037B000050170E010C09091FB029923C1F0609167
:1037C00004019617A0F780910501899FC00111247B
:1037D00070E00E94E7266038710528F461157105D4
:1037E00021F0862F08958FE7089581E0089561E024
:1037F00070E0F4CF803F21F40E94781B819504C0D3
:10380000813F29F40E94781B8093FF020895823F34
:1038100021F40E94781B819504C0833F29F40E9403
:10382000781B8093FE020895893F19F40E94C11B02
:1038300005C08A3F31F40E94C11B8195809300032B
:1038400008958B3F21F40E94C11B819504C08C3FD9
:1038500029F40E94C11B809301030895843F21F441
:103860008091FD02816017C0853F21F48091FD02A7
:10387000826011C0863F21F48091FD0284600BC0FC
:10388000873F21F48091FD02886005C0883F31F4B4
:103890008091FD0280618093FD0208958D3F21F4A7
:1038A0008091FA0281600BC08E3F21F48091FA0270
:1038B000826005C08F3F29F48091FA028460809372
:1038C000FA020895803F39F48091FF0287FF6CC0AF
:1038D0001092FF0269C0813F29F48091FF021816FF
:1038E000BCF362C09091FE02823F29F497FF5CC056
:1038F0001092FE0259C0833F19F41916CCF354C03C
:10390000893F41F48091000318160CF04DC01092CD
:1039100000034AC08A3F29F48091000387FF44C016
:10392000F6CF8B3F39F48091010387FF3DC01092A1
:1039300001033AC08C3F29F4809101031816BCF3AF
:1039400033C0843F21F48091FD028E7F17C0853FF4
:1039500021F48091FD028D7F11C0863F21F480917A
:10396000FD028B7F0BC0873F21F48091FD02877F92
:1039700005C0883F31F48091FD028F7E8093FD0267
:1039800013C08D3F21F48091FA028E7F0BC08E3FD1
:1039900021F48091FA028D7F05C08F3F29F4809138
:1039A000FA028B7F8093FA028091FE0281110EC091
:1039B0008091FF0281110AC080910003811106C02D
:1039C00080910103811102C01092FB0208958CEFD7
:1039D00092E00E94B20C0E94D11A9093F802809358
:1039E000F70208951F93CF93DF938091F702909190
:1039F000F8020E94DD1AAC019091FB02992321F09C
:103A00002091080130E006C02091F9028AE0289F49
:103A1000900111244217530708F47BC08091FE02E5
:103A2000C091FF02D091000310910103811107C0E2
:103A3000C1116BC0D11169C0111167C06AC09F3F2D
:103A400019F09F5F9093FB02181624F40E94781BD4
:103A50008093FE028091FE0287FF05C00E94781BC2
:103A600081958093FE021C1624F40E94781B80939B
:103A7000FF028091FF0287FF05C00E94781B81959D
:103A80008093FF023091FE023323E1F02091FF0288
:103A90002223C1F045EB3403C0011124892F990F73
:103AA000990B009709F481E08093FE0235EB230324
:103AB000C0011124892F990F990B009709F481E017
:103AC0008093FF021D1624F40E94C11B8093000303
:103AD0008091000387FF05C00E94C11B81958093E0
:103AE0000003111624F40E94C11B809301038091EE
:103AF000010387FF05C00E94C11B819580930103CC
:103B0000DF91CF911F910C94E71C9F3F09F099CF53
:103B1000A1CFDF91CF911F910895ECEFF2E086E005
:103B2000DF011D928A95E9F71092FB021092FA02CA
:103B30000895833081F128F4813059F08230D1F03A
:103B40000895853009F449C0B8F1863009F456C0AB
:103B500008958091F902262F30E0280F311D2F3F64
:103B6000310524F4680F6093F90208958FEF809374
:103B7000F902089580910801262F30E0280F311DA9
:103B80002F3F310524F4680F6093080108958FEFEB
:103B900080930801089580910701262F30E0280FB7
:103BA000311D2F3F310524F4680F609307010895FC
:103BB0008FEF80930701089580910601262F30E052
:103BC000280F311D2F3F310524F4680F6093060143
:103BD00008958FEF80930601089580910501262FA7
:103BE00030E0280F311D2F3F310524F4680F60931A
:103BF000050108958FEF80930501089580910401D8
:103C0000262F30E0280F311D2F3F310524F4680F97
:103C10006093040108958FEF809304010895833029
:103C200011F128F4813049F0823091F00895853007
:103C300081F120F18630C1F108958091F902681771
:103C400020F4861B8093F90208951092F9020895DA
:103C500080910801681720F4861B8093080108955D
:103C600010920801089580910701681720F4861BBF
:103C7000809307010895109207010895809106012D
:103C8000681720F4861B80930601089510920601A0
:103C9000089580910501681720F4861B8093050123
:103CA000089510920501089580910401681720F489
:103CB000861B8093040108951092040108950F93C8
:103CC0001F93873208F04DC08E3108F093C08031C9
:103CD00009F47DC008F5873009F46BC068F48630BC
:103CE00009F0A3C08091F502817F8E7F8093F50259
:103CF00081E0809303039AC08B3009F48FC08E302B
:103D000009F093C08091F50282FB222720F991E00F
:103D1000922790FB82F964C0863109F47FC088F451
:103D2000813109F082C00E94BF1280912E0387FB6F
:103D3000222720F991E0922790FB87F980932E03A8
:103D40006DC0893109F46AC08B3109F06EC0809171
:103D5000F50281FB222720F991E0922790FB81F95F
:103D60003FC0883309F45AC050F4893209F458C06E
:103D7000853309F455C0873209F452C056C08334E4
:103D800009F44EC028F48A3308F44FC0895333C075
:103D9000883409F04AC00E94BF120FEF13ED20E3F0
:103DA000015010402040E1F700C000000E942D1B90
:103DB00035C08091F502982F9095917090FB80F915
:103DC0008093F50291112AC0897F877F10C080916E
:103DD000F50283FB222720F991E0922790FB83F9DB
:103DE0008093F5029923D1F08091F5028160809350
:103DF000F50214C08D5141E050E060E070E08A01AE
:103E00009B0104C0000F111F221F331F8A95D2F798
:103E1000C901B8010E9497160E94BF1281E006C036
:103E200061E070E080E090E0F5CF80E01F910F91BD
:103E3000089580E0089580E008958E518A3030F42E
:103E4000E82FF0E0E454FE4F8081089580E008956B
:103E5000CF93C82F80910303813079F018F082301E
:103E6000E9F185C0E0910201F09103018081813187
:103E700069F0823209F07DC009C0E0910201F09141
:103E800003018081813111F0823261F48C2F0E9414
:103E9000191F811104C08C2F0E945F1E1DC081E07C
:103EA00090E01AC08C2F0E941B1F811114C0C431D6
:103EB00079F048F4CB3079F0C03109F05EC082E08F
:103EC0008093030308C0C93219F0C83321F055C0EC
:103ED0001092030352C081E0817051C0C93279F160
:103EE00008F5C43161F1A0F4C73009F044C0109264
:103EF000F90284E180930801C09307018CE3809369
:103F0000060188E08093050188E28093040133C0B4
:103F100082EE8C0F863078F58C2F0E941D1F8093C7
:103F2000020329C0CE34E9F020F4CB3421F56AE055
:103F300013C0C13579F0C235F1F461E00DC0809154
:103F40000203882319F01092020315C081E08093C8
:103F5000030315C061E006C0809102030E94991D11
:103F60000AC06AE0809102030E940F1E04C01092F2
:103F7000030380E004C081E002C080E0ADCFCF91B8
:103F800008958091240308950F931F93CF93DF9397
:103F900000D01F92CDB7DEB78C010E942E22823056
:103FA00011F0843021F584E089831B830A8382E049
:103FB0008093E9008FEF9091E800815095FD06C055
:103FC00095ED9A95F1F700008111F5CF8091E80009
:103FD00085FF0DC040E050E063E070E0CE01019647
:103FE0000E944B228091E8008E778093E8000F902A
:103FF0000F900F90DF91CF911F910F910895CF9364
:10400000DF9300D01F92CDB7DEB720913403243068
:1040100031F523E02983805891099B838A8382E0CC
:104020008093E9008FEF9091E800815095FD06C0E4
:1040300095ED9A95F1F700008111F5CF8091E80098
:1040400085FF0DC040E050E063E070E0CE010196D6
:104050000E944B228091E8008E778093E8000F90B9
:104060000F900F90DF91CF910895CF93DF93EC01E4
:104070000E942E22823011F08430F9F482E0809385
:10408000E9009FEF8091E800915085FD06C085ED25
:104090008A95F1F700009111F5CF8091E80085FF36
:1040A0000CC040E050E066E070E0CE010E944B2280
:1040B0008091E8008E778093E800DF91CF9108959A
:1040C000CF93DF93EC010E942E22823011F08430D6
:1040D000D9F580911301882339F080912E0387FF51
:1040E00003C060E282E002C068E081E08093E90002
:1040F0008FEF9091E800815095FD06C095ED9A955F
:10410000F1F700008111F5CF8091E80085FF1CC018
:1041100080911301811105C040E050E068E070E03B
:1041200003C070E040E050E0CE010E944B2280913D
:10413000E8008E778093E80080E2FE01A4E0B3E01F
:1041400001900D928A95E1F7DF91CF9108958091CA
:104150003303811109C00E94E0230E943D24809115
:10416000E20084608093E200089510923303089582
:10417000089508950C94971A42E061EC81E00E9442
:104180005A2342E261EC82E00C945A238091360378
:10419000833009F45CC030F4813071F0823009F46E
:1041A00095C008958A3009F481C08B3009F467C046
:1041B000893009F0A3C020C080913503813A09F00D
:1041C0009DC08091E800877F8093E800809139034B
:1041D00090913A03892B21F460E284E093E003C0DC
:1041E00060E080E090E070E00E9496228091E8001C
:1041F0008B778093E800089580913503813209F030
:104200007DC08091390390913A03029708F076C0FF
:104210008091E800877F8093E8008091E80082FD2C
:1042200005C0809134038111F8CF68C080911301DB
:10423000882329F08091F1008B7F813021F48091D7
:10424000F100809324038091E8008B7753C0809124
:104250003503813A09F052C08091390390913A03B5
:10426000892B09F04BC08091E800877F8093E8009C
:104270008091E80080FFFCCF8091130136C08091CF
:1042800035038132D9F58091390390913A03892B16
:10429000A9F58091E800877F8093E8000E948F2332
:1042A00080913703809313010C94BF1280913503E2
:1042B000813221F58091E800877F8093E8000E9499
:1042C0008F238091380380932503089580913503CF
:1042D000813AA1F48091E800877F8093E800809183
:1042E000E80080FFFCCF809125038093F10080914E
:1042F000E8008E778093E8000C948F23089584B7AC
:10430000877F84BF0FB6F894A8958091600088617C
:1043100080936000109260000FBE80E8809361007F
:10432000109261000E94F40C0E94E0230E943D2440
:104330008091E20084608093E20078940E94CC2611
:104340000E94FA0C89E091E00E94870C809134036E
:10435000853069F40E944F1A809132038823B1F3AB
:104360000E94801A882391F30E943522EFCF0E9489
:10437000000DECCF0C94BC21292F332723303105BD
:10438000C9F064F42130310581F02230310509F0A3
:104390004CC08BE390E027ED34E04BC02132310577
:1043A00021F12232310589F140C082E190E022E121
:1043B00035E03FC099278130910571F02CF4892BAD
:1043C000A1F5E3EDF4E00DC08230910541F00397D3
:1043D00061F5EDE9F4E005C0EBEBF4E002C0E3EADF
:1043E000F4E0849190E09F0124C06115710541F0D3
:1043F00061307105D1F489E090E022E035E019C028
:1044000089E090E029EE34E014C06115710541F0B7
:104410006130710551F480EC90E024E235E009C090
:1044200080E490E024EE35E004C080E090E020E0FD
:1044300030E0FA013183208308950895CF93C82F87
:104440000E941D22C0932603CF91089580913403CA
:10445000843011F081E0089582E008958091260370
:10446000811102C00C942622089580E189BD82E169
:1044700089BD09B400FEFDCF8091D8008F7D809367
:10448000D8008091E00082608093E0008091E0009D
:1044900081FDFCCF0895CF92DF92EF92FF920F93B0
:1044A0001F93CF93DF93EC018B016A010E94AE232F
:1044B000811133C0C114D10439F0F601808191819A
:1044C000081B190BC80FD91FE12CF12C0115110580
:1044D00019F18091E80085FD16C08091E8008E7783
:1044E0008093E800C114D10449F0F60180819181E4
:1044F000E80EF91EF182E08285E00FC00E94AE2333
:10450000882321F30AC089918093F1000150110999
:10451000FFEFEF1AFF0ADACF80E0DF91CF911F9112
:104520000F91FF90EF90DF90CF90089520913B0383
:1045300030913C032617370748F06115710539F4AF
:104540002091E8002E772093E80001C0B90140E0F7
:1045500061157105A9F120913403222309F443C0A8
:10456000253009F442C02091E80023FD40C020918D
:10457000E80022FD32C02091E80020FFE9CF409101
:10458000F3002091F20030E0342BFC01CF016115E3
:10459000710559F02830310540F481918093F10084
:1045A000615071092F5F3F4FF1CF41E02830310555
:1045B00009F040E02091E8002E772093E800C8CF72
:1045C0004111C9CF0AC080913403882361F085303E
:1045D00061F08091E80083FD0AC08091E80082FFCD
:1045E000F2CF80E0089582E0089583E0089581E0AD
:1045F000089520913B0330913C032617370748F07C
:104600006115710539F42091E8002E772093E800B8
:1046100001C0B901FC0120E06115710591F18091A3
:104620003403882309F440C0853009F43FC08091E9
:10463000E80083FD3DC08091E80082FD2FC080919D
:10464000E80080FFE9CF2091F3008091F20090E034
:10465000922B6115710559F08830910540F4249131
:104660002093F1003196615071090196F2CF21E05B
:10467000089709F020E08091E8008E778093E800A9
:10468000CBCF2111CCCF0AC080913403882361F0B5
:10469000853061F08091E80083FD0AC08091E800D8
:1046A00082FFF2CF80E0089582E0089583E00895CC
:1046B00081E00895982F973058F59093E900981766
:1046C00039F07091EC002091ED005091F00003C0A2
:1046D000242F762F50E021FF19C03091EB003E7F50
:1046E0003093EB003091ED003D7F3093ED00309141
:1046F000EB0031603093EB007093EC002093ED0001
:104700005093F0002091EE0027FF07C09F5FD3CFAA
:104710008F708093E90081E0089580E00895809192
:10472000350387FF11C08091E80082FD05C08091AC
:1047300034038111F8CF11C08091E8008B770BC052
:1047400080913403882349F08091E80080FFF8CFFE
:104750008091E8008E778093E80008952091E4002E
:104760003091E50095E64091EC00842F817040FF88
:1047700022C08091E80080FD1CC080913403882312
:1047800091F0853091F08091EB0085FD10C0409153
:10479000E4005091E5004217530729F39A01915024
:1047A00011F784E0089582E0089583E0089581E0A0
:1047B000089580E008954091E80042FFDECF08951B
:1047C0000E944E240E945624E0EEF0E08081816039
:1047D0008083E8EDF0E080818F77808319BCA7EDBE
:1047E000B0E08C918E7F8C9380818F7E808310923D
:1047F000330308950F931F93CF93DF930E944E24AA
:104800000E945624C8EDD0E088818F778883888104
:104810008068888388818F7D888319BC10923403D7
:1048200010923003109232031092310300EE10E028
:10483000F80180818B7F808388818160888342E05A
:1048400060E080E00E945A23E1EEF0E080818E7FFC
:104850008083E2EEF0E080818160808380818860E7
:104860008083F80180818E7F808388818061888346
:10487000DF91CF911F910F910895E8EDF0E08081D5
:104880008F7E8083E7EDF0E080818160808384E02B
:1048900082BF81E0809333030C94FA23E8EDF0E0CB
:1048A00080818E7F80831092E20008951092DA005A
:1048B0001092E10008951F920F920FB60F921124EB
:1048C0002F933F934F935F936F937F938F939F9318
:1048D000AF93BF93EF93FF938091E10082FF0BC0F2
:1048E0008091E20082FF07C08091E1008B7F80937E
:1048F000E1000E94CB268091DA0080FF1FC08091EA
:10490000D80080FF1BC08091DA008E7F8093DA0090
:104910008091D90080FF0DC080E189BD82E189BD11
:1049200009B400FEFDCF81E0809334030E94A720EC
:1049300005C019BC109234030E94B5208091E1009B
:1049400080FF19C08091E20080FF15C08091E200D5
:104950008E7F8093E2008091E20080618093E2008C
:104960008091D80080628093D80019BC85E0809344
:1049700034030E94B9208091E10084FF30C080910F
:10498000E20084FF2CC080E189BD82E189BD09B4C9
:1049900000FEFDCF8091D8008F7D8093D80080915C
:1049A000E1008F7E8093E1008091E2008F7E809312
:1049B000E2008091E20081608093E2008091300308
:1049C000882311F084E007C08091E30087FD02C0D6
:1049D00081E001C083E0809334030E94BA2080917B
:1049E000E10083FF29C08091E20083FF25C0809110
:1049F000E100877F8093E10082E08093340310928E
:104A000030038091E1008E7F8093E1008091E2008D
:104A10008E7F8093E2008091E20080618093E200CB
:104A200042E060E080E00E945A238091F0008860BC
:104A30008093F0000E94B820FF91EF91BF91AF9159
:104A40009F918F917F916F915F914F913F912F91A6
:104A50000F900FBE0F901F9018951F920F920FB6D8
:104A60000F9211242F933F934F935F936F937F93F4
:104A70008F939F93AF93BF93CF93DF93EF93FF9366
:104A8000C091E900CF708091EC00D82FD17080FDEB
:104A9000D0E81092E9008091F000877F8093F000C9
:104AA00078940E9471251092E9008091F00088604E
:104AB0008093F000CD2BCF70C093E900FF91EF9170
:104AC000DF91CF91BF91AF919F918F917F916F9126
:104AD0005F914F913F912F910F900FBE0F901F90BC
:104AE00018951F93CF93DF93CDB7DEB7AA970FB674
:104AF000F894DEBF0FBECDBFE5E3F3E088E08E0F94
:104B00009091F10091938E13FBCF0E94C62080916B
:104B1000E80083FF28C18091350390913603492F27
:104B200050E04A30510508F01EC1FA01E755FF4F29
:104B30000C94FB26803821F0823809F014C108C09B
:104B40008091310390913203992389F082600FC0E4
:104B5000809139038F70873008F005C18093E90098
:104B60008091EB0085FB882780F91092E9009091F5
:104B7000E800977F9093E8008093F1001092F10095
:104B8000D0C0282F2D7F09F0EEC0882319F0823085
:104B900061F0E9C080913703813009F0E4C09330BF
:104BA00009F080E0809332032EC080913703811199
:104BB0002AC0809139038F702FEF280F263008F01C
:104BC000D2C08093E9002091EB0020FF1CC09330FD
:104BD00021F48091EB00806214C09091EB00906111
:104BE0009093EB0021E030E0A90102C0440F551F73
:104BF0008A95E2F74093EA001092EA008091EB0078
:104C000088608093EB001092E9008091E800877F34
:104C10008093E8000E948F23A6C08111A4C0109148
:104C200037031F778091E3008078812B8093E30026
:104C30008091E800877F8093E8000E948F23809115
:104C4000E80080FFFCCF8091E30080688093E30060
:104C5000111102C082E001C083E08093340383C05D
:104C60008058823008F07FC08091370390913803DC
:104C70008C3D53E0950779F583E08A838AE2898346
:104C80004FB7F894DE01139620E03EE051E2E32FA7
:104C9000F0E050935700E49120FF03C0E295EF70DD
:104CA0003F5FEF708E2F90E0EA3010F0C79601C0A2
:104CB000C0968D939D932F5F243149F74FBF80910C
:104CC000E800877F8093E8006AE270E0CE010196F9
:104CD0000E94962215C06091390370913A03AE018B
:104CE0004F5F5F4F0E94BA21BC01892BE1F1909187
:104CF000E800977F9093E80089819A810E94F922C9
:104D00008091E8008B778093E8002DC0803859F5BA
:104D10008091E800877F8093E80080913003809342
:104D2000F1008091E8008E7773CF81111CC09091C3
:104D300037039230C0F48091E800877F8093E800C9
:104D4000909330030E948F2380913003811106C01D
:104D50008091E30087FD02C081E001C084E0809380
:104D600034030E94BC208091E80083FF0AC0809138
:104D7000E800877F8093E8008091EB008062809359
:104D8000EB00AA960FB6F894DEBF0FBECDBFDF9141
:104D9000CF911F9108950895CF9380913403882374
:104DA000A1F0C091E900CF709091EC00892F817043
:104DB00090FD80E8C82B1092E9008091E80083FD07
:104DC0000E947125CF70C093E900CF91089597FBA1
:104DD000072E16F4009407D077FD09D00E94012712
:104DE00007FC05D03EF4909581959F4F08957095EE
:104DF00061957F4F0895EE0FFF1F0590F491E02D10
:104E00000994AA1BBB1B51E107C0AA1FBB1FA61711
:104E1000B70710F0A61BB70B881F991F5A95A9F763
:104E200080959095BC01CD010895F999FECF92BD72
:104E300081BDF89A992780B50895A8E1B0E042E0D5
:104E400050E00C944927262FF999FECF92BD81BDE1
:104E5000F89A019700B4021639F01FBA20BD0FB6B8
:104E6000F894FA9AF99A0FBE08950396272F0E9494
:104E700024270E942327252F0E942427242F0C94C7
:104E800024270196272F0E9424270C942327DC0136
:104E9000CB01FC01F999FECF06C0F2BDE1BDF89A45
:104EA000319600B40D9241505040B8F70895F894EF
:024EB000FFCF32
:104EB2002000D20228083C0714C11F60203520FFC1
:104EC2001FC41F01000D010D020D030D040D050D80
:104ED200000C010C020C030C040C050C000B010B62
:104EE200020B030B040B050B000A010A020A030A58
:104EF200040A050A0009010902090309040905094E
:104F02000008010802080308040805080007010751
:104F12000207030704070507000601060206030647
:104F2200040605060005010502050305040505053D
:104F32000004010402040304040405040003010341
:104F42000203030304030503000201020202030237
:104F5200040205020001010102010301040105012D
:104F62000000010002000300040005000102030426
:064F720005060708090016
:00000001FF
