:100000000C94EB020C9408030C9408030C94080362
:100010000C9408030C9408030C9408030C94080334
:100020000C9408030C9408030C944B1F0C941D2093
:100030000C94FE190C9408030C9408030C94080308
:100040000C9408030C9408030C9408030C94080304
:100050000C9408030C94661A0C9408030C9408037F
:100060000C9408030C9408030C9408030C940803E4
:100070000C9408030C9408030C9408030C940803D4
:100080000C9408030C9408030C9408030C940803C4
:100090000C9408030C9408030C9408030C940803B4
:1000A0000C9408030C9408030C9408036003630386
:1000B000660369036C036F0372038E0693069D0645
:1000C000910696069B069906F707F9070408FB07B1
:1000D000FD07FF0701080308060808080A081508B5
:1000E0000C080E081008120814081708700F700F7B
:1000F000A20FA20FD90F7E1120117E11F90F7E11D0
:10010000A610A61017117E117E117811B310B3102E
:10011000B310B310B310B310B310B310B310B310C7
:10012000B310B310B310B310B310B310C410D11088
:10013000D810DF10E91005120512171217120E124F
:10014000171217121712051205121312171217128F
:1001500013128A20B120A321B120A321FD20202148
:10016000A321762185216572676F646F785F657A58
:100170002F616561313966626632303061313062DB
:100180003732303638204020302E362E3237332D5D
:1001900031362D676234653462652D646972747915
:1001A000000000F0A129002B002800E100E0000081
:1001B000001E00140004001D00010028671F001A23
:1001C0000016001B00010002512000080007000675
:1001D00000E2002C622100150009001900E300294B
:1001E0006F220017000A0005000000015134004C86
:1001F0000000002A000000390034022E0000002D0B
:10020000000000500023001C000B00110000004FF4
:1002100000240018000D0010003378520025000C57
:10022000000E00360034642C62260012000F0037E6
:10023000003571015127001300330038002F0051A1
:10024000002A0031002800E5003000000001000114
:100250000001000100010000003A003500380036BE
:1002600002010001003B001F0221023702010001D0
:10027000003C002F0226022F00010001003D00304B
:100280000227023000010001003E00310235003536
:100290000200000100010001000000010000000157
:1002A0000001003402000034000000010040005250
:1002B00000510024020000010040005F005C005972
:1002C0000036000100410060005D005A006200013C
:1002D00000420061005E005B0063000100430055C6
:1002E00000570054002D00010044004500010001AA
:1002F000002E0000000100010001000100010000CB
:1003000000010001000100010001000100010001E5
:1003100000010001000100010001000100010001D5
:10032000000100006A01000100010001000100015C
:100330000001000100010001000000AC00AC000160
:1003400000000001000000AB00AB00010000000154
:100350000000002F000100010050000100000030EB
:10036000000100010051000100006A0100010001CC
:100370000052000100E7006A0001002F004F000159
:1003800000500069000100300001005200510001DE
:1003900000A900AA00AE00A8004F00000000000065
:1003A00000000000002A2B280000000000000000D0
:1003B000000000000000000029000000002C1E3496
:1003C00020212224342627252E362D3738271E1F9C
:1003D000202122232425263333362E37381F0405C7
:1003E000060708090A0B0C0D0E0F10111213141535
:1003F000161718191A1B1C1D2F3130232D35040513
:10040000060708090A0B0C0D0E0F10111213141514
:10041000161718191A1B1C1D2F3130354C000000FF
:1004200000000000000000000000000000000000CC
:1004300000000000000000000000000000000101BA
:1004400001010101000101010100000000000000A4
:100450000000000000000001000100010101010195
:10046000010101010101010101010101010101017C
:100470000101010101010101000000010100000072
:10048000000000000000000000000000000000006C
:100490000000000000000000010101010004033021
:1004A00000000016034500720067006F0044006FF3
:1004B000007800200045005A000000160345007235
:1004C0000067006F0044006F007800200045005A6C
:1004D0000000000403090409023B00020100A0FA25
:1004E000090400000103010100092111010001229A
:1004F00040000705810308000A0904010001030008
:10050000000009211101000122710007058203206A
:10051000000A1201100100000008EDFE071301009F
:100520000102030105010980A101850316010026CE
:1005300003001A81002A8300751095018100C0050F
:100540000C0901A1018504160100269C021A010074
:100550002A9C02751095018100C005010906A101C0
:100560008505050719E029E715002501950875019E
:10057000810205081901290595057501910295016A
:10058000750391010507190029EF1500250195F064
:1005900075018102C005010906A101050719E029BD
:1005A000E7150025019508750181029501750881FF
:1005B0000105081901290595057501910295017537
:1005C0000391010507190029FF150026FF00950674
:1005D00075088100C00011241FBECFEFDAE0DEBF36
:1005E000CDBF11E0A0E0B1E0E2E4F4E402C0059088
:1005F0000D92A83BB107D9F723E0A8EBB1E001C009
:100600001D92A033B207E1F70E946F1C0C941F22C9
:100610000C94000080B38C7080BB81B3836F81BB6E
:10062000089584B1807F84B985B1807F85B98AB10E
:10063000837F8AB98BB1837F8BB93E9846980895A2
:10064000CF93E82F873090F58091000190910101C0
:10065000892B09F049C0CE2F64E670E080E40E9447
:10066000A1049093010180930001892BD1F464E6E9
:1006700070E082E10E94F8049093010180930001F0
:10068000892B79F481E090E001C0880FCA95EAF7E0
:1006900064E670E080950E94F804909301018093D5
:1006A000000184E690E0CF910C944D0590E0FC01B0
:1006B0003797E730F105C0F4EA5AFF4F0C94D72181
:1006C000209A289811C0219A29980EC0229A2A9817
:1006D0000BC0239A2B9808C0529A5A9805C0539A77
:1006E0005B9802C03E9A4698CF9108950895089568
:1006F0000C947703CF93DF930E94DF0590E09093F3
:100700000101809300010E9411030E940A03ADE0E1
:10071000B2E029EB31E0EBE1F2E04EE04E0F119256
:100720001D9280E090E0E901C80FD91F1882019660
:1007300086309105C1F72A5F3F4F4E13F0CFDF910E
:10074000CF910C9406070E94DF0590E09093010181
:10075000809300010E9411030E940A03EBE1F2E082
:100760008EE08E0F11928E13FDCF0895CF93DF93FD
:10077000E62FF0E0E35FFD4F40814827808386E06D
:10078000689FF0011124E754FE4F20E030E080E044
:1007900061E070E050E0AAE0B22F9081992319F057
:1007A0009150908307C0EB01022E01C0CC0F0A9438
:1007B000EAF78C2BEA0102C0D595C795BA95E2F706
:1007C000C0FDA0832F5F3F4F31962630310521F7C2
:1007D000DF91CF910895CF93DF93D82F873008F022
:1007E00040C08091000190910101892B09F042C025
:1007F00064E670E080E40E94A1049093010180937C
:100800000001892B11F0C0E027C064E670E083E1AD
:100810000E94F8049093010180930001892B99F7BD
:1008200064E670E081E40E94A1049093010180934A
:100830000001892B41F784E690E00E94280597FF8C
:1008400005C09093010180930001DDCFC82FC095B2
:10085000109201011092000184E690E00E944D0583
:100860000AC09FB1CFB1C07FC695C6959370C92B02
:10087000C09501C0C0E06D2F8C2F0E94B603282FB9
:100880002095ED2FF0E0E55EFD4F908192238C23C3
:10089000892BDF91CF910895EF92FF920F931F93D1
:1008A000CF93DF938091000190910101892B91F00A
:1008B0008091B8018F5F8093B80181110BC00E94B5
:1008C000DF0590E09093010180930001892B11F4E2
:1008D0000E9471058BE1E82E82E0F82E02E212E020
:1008E000C0E08C2F0E942003D7E0DC0F8D2F0E94E8
:1008F00020038C2F0E94EB03F70181937F018D2F42
:100900000E94EB03F80181938F010E941103CF5FD6
:10091000C73039F70E94100781E0DF91CF911F9116
:100920000F91FF90EF900895E82FF0E0E55EFD4F06
:100930008081089508951092B9008CE08093B800EA
:100940000895EF92FF920F931F93CF93DF93182F89
:10095000EB011092BC0084EA8093BC000E94301A24
:100960007C019091BC0097FD0EC0CF3F8FEFD80760
:10097000C1F30E94301A8E199F098C179D0788F3C6
:100980008EEF9FEF2EC09091B900987F983041F084
:100990009091B900987F903119F08FEF9FEF21C0AF
:1009A0001093BB0084E88093BC000E94301A8C0135
:1009B0009091BC0097FD0CC0CF3F8FEFD807C1F3DB
:1009C0000E94301A801B910B8C179D0788F3D8CF9B
:1009D0008091B900887F883111F08034F1F680E091
:1009E00090E0DF91CF911F910F91FF90EF900895CC
:1009F0000F931F93CF93DF93EB018093BB0084E8A9
:100A00008093BC000E94301A8C019091BC0097FD2D
:100A10000EC0CF3F8FEFD807C1F30E94301A801B62
:100A2000910B8C179D0788F38EEF9FEF0CC02091E0
:100A3000B900287F81E090E0283211F480E090E056
:100A4000919581959109DF91CF911F910F91089513
:100A50000F931F93CF93DF93EC0184E88093BC0046
:100A60000E94301A8C019091BC0097FD0EC0CF3FC0
:100A70008FEFD807C1F30E94301A801B910B8C179F
:100A80009D0788F38EEF9FEF03C08091BB0090E03D
:100A9000DF91CF911F910F9108950F931F93CF93E3
:100AA000DF93EC0184E98093BC000E94301A8C0132
:100AB0009091BC0094FF0EC0CF3F8FEFD807C1F3D9
:100AC0000E94301A801B910B8C179D0788F38EEFC4
:100AD0009FEF02C080E090E0DF91CF911F910F91D6
:100AE000089556985E9825982D9826982E982798C0
:100AF0002F988FEF90E090938900809388009093D7
:100B00008B0080938A0090938D0080938C00259AAF
:100B10002D9A2FEF80E792E0215080409040E1F73E
:100B200000C00000269A2E9A2FEF80E792E0215015
:100B300080409040E1F700C00000279A2F9A2FEFE5
:100B400080E792E0215080409040E1F700C0000033
:100B500025982D982FEF80E792E02150804090401B
:100B6000E1F700C0000026982E982FEF80E792E072
:100B7000215080409040E1F700C0000027982F9856
:100B800056985E9825982D9826982E9827982F98F5
:100B9000089589EA8093800089E0809381002498F9
:100BA0002C983F988AB18F7C8AB96E98479A8BB1FE
:100BB00080638BB9769A0E9471050C94760380E26B
:100BC00090E09093010180930001809129028111AE
:100BD0000EC00E949B0481E0809329022FEF83EDD9
:100BE00090E3215080409040E1F700C0000064E6AF
:100BF00070E080E40E94A1049093010180930001C1
:100C0000892B09F050C064E670E080E00E94F8048F
:100C10009093010180930001892B09F044C064E6A0
:100C200070E080E00E94F80490930101809300013D
:100C3000892BC9F564E670E08FE30E94F804909375
:100C4000010180930001892B71F584E690E00E94F8
:100C50004D0564E670E080E40E94A10490930101D8
:100C600080930001892BF9F464E670E08CE00E9427
:100C7000F8049093010180930001892BA1F464E6AC
:100C800070E080E00E94F8049093010180930001DD
:100C9000892B49F464E670E08FE30E94F804909396
:100CA00001018093000184E690E00E944D0580914F
:100CB00000010895611108C0FC018281882321F0A0
:100CC00086E691E00E94030780E090E00895863E6A
:100CD0009C4541F4FB018281882329F00E941C1964
:100CE00080E0089581E00895CF92DF92EF92FF9225
:100CF0006B017C010E945E1856985E9825982D988D
:100D000026982E9827982F9890E0FC013197E7308D
:100D1000F105A8F4E35AFF4F0C94D721259A2D9A98
:100D20000EC0259A2D9A269A2E9A09C0259A2D9A98
:100D300004C0259A2D9A269A2E9A279A2F9AC7018F
:100D4000B601FF90EF90DF90CF90089581E0089575
:100D50000C946706CF93282F30E0F901E356FC4F3F
:100D6000C491F901E35EFB4F2491222359F081EEF7
:100D70000E94B00D8C2F0E94B00D8C2F0E94C70EC8
:100D800081EE04C08C2F0E94B00D8C2FCF910C945B
:100D9000C70E0F931F93CF93DF93EC01062FFE0135
:100DA0008491882359F19E012F5F3F4F813041F498
:100DB000E901F9011491812F0E94B00D812F0DC01E
:100DC000823031F4E901F90184910E94B00D0AC02A
:100DD000833031F4E901F90184910E94C70E02C009
:100DE0000E94AA062196802F8823C9F2EFE9FFE02E
:100DF0003197F1F700C000008150F6CFDF91CF911D
:100E00001F910F91089560E00C94C9060E94AE18DE
:100E1000811102C00E941C190E94640B0C94C90528
:100E20000C947803282F2F7041F0822F90E02A3005
:100E300010F44D9608950697089587E290E008957E
:100E400008950C9420070C94210708950E94F51131
:100E50000E9425072FEF84E39CE0215080409040C2
:100E6000E1F700C000000C948C1AFF920F931F93BF
:100E7000CF93DF938C01FC01C081D1818091550219
:100E8000811113C08281882349F0CE010E942B1763
:100E9000F82E682FCE010E94CE1604C0CE010E940B
:100EA000FE16F82EBE018F2D04C0CE010E942B1716
:100EB000BE010E94CE08EC01B8010E94A80688235A
:100EC00009F464C1B801CE010E94DF0B882309F444
:100ED0005DC1C63DFCE5DF0761F5F801828188232D
:100EE00051F010922F020E94301A90932C0280939E
:100EF0002B0282E03BC00E94AB1785FF05C081E05A
:100F000080932F028093300280912F0281110FC0B5
:100F100080912B0290912C020E943C1A883C9105F2
:100F200030F486E20E94B00D86E20E94C70E82E095
:100F30002FC0C73D8CE5D80770F1CB3D8CE5D807B5
:100F400009F4D6C008F0DBC0C73DFCE5DF0709F0B7
:100F5000F4C0F8018281882361F0109230020E946F
:100F6000301A90932E0280932D0280E20E942E0F61
:100F70000DC10E94AB1781FF05C081E080932F0255
:100F80008093300280913002882309F4C5C080E24A
:100F90000E94350FFBC0C531ECE5DE0708F07EC0CE
:100FA000C230FCE5DF0708F452C0F80182818823D3
:100FB00009F459C00E94AE18811102C00E941C1988
:100FC0000E94C11890E09093220380932103FE01B8
:100FD000E350FC45E231F10530F4EC59FF4F8091CC
:100FE00021030C94D72180912103816027C0826066
:100FF00025C0846023C0806121C080621FC08064DE
:101000001DC080681BC08460886018C08E7F16C0B9
:101010008D7F14C08B7F12C08F7E10C08F7D0EC05D
:101020008F7B0CC08F770AC08B7F877F07C087FBC1
:10103000222720F991E0922790FB87F980932103E2
:10104000809121030E94C5180E94F5119FC0C1150F
:101050008CE5D80781F0C130DC45A9F081E08093B0
:101060002F0280933002C801DF91CF911F910F9121
:10107000FF900C94A606F8018281882309F486C0AB
:101080000E94260783C0F8018281882309F47EC06C
:101090008091F40281608093F40278C0C631DC450F
:1010A000E9F60E94AB17282FF801828140910201D6
:1010B00050910301882379F02A7A91E009F490E0B5
:1010C00090932A02911102C069E201C065E3CA014E
:1010D0000E9483190AC080912A02811102C069E22C
:1010E00001C065E3CA010E948E190E94FA174EC022
:1010F000F8018281882309F449C080E00AC0CC3D10
:10110000ECE5DE07D1F5F8018281882309F43EC0C1
:1011100082E00E940E1D3AC080912D0290912E0215
:101120000E943C1A883C910508F031CF87E20E946A
:10113000B00D87E20E94C70E2ACFC83DDC4509F0FA
:101140008DCFF8018281811108CF80913002811109
:101150001ECF80912D0290912E020E943C1A883C55
:10116000910508F014CF80E20E94350F88E20E94BA
:10117000B00D88E20E94C70E09C0CD3DDC4509F0E4
:101180006DCFF801828181110E941C1980E0DF91EE
:10119000CF911F910F91FF900895089596E0799F48
:1011A000F001112494E5899FE00DF11D1124E60F53
:1011B000F11DEE0FFF1FEB55FE4F859194910895A1
:1011C000880F991FFC01EF55FE4F8591949108956A
:1011D000CF93DF930E94CE080E94AD0AEC018115E7
:1011E00020E59207F0F5811530E4930708F029C156
:1011F000883E910500F5803E910508F0AAC1883A25
:10120000910570F4853A910508F0A4C081309105EC
:1012100009F49FC108F450C1049708F09AC14CC169
:101220008F3B910508F4A1C0803C910508F444C1AE
:10123000805C9109F9C0811540E2940758F4C1150A
:1012400081E0D80708F085C1C03FD10508F434C15A
:10125000D0657FC1811520E3920708F0E9C09F7037
:10126000E3C0811535E5930708F044C0811544E5D6
:10127000940708F0FDC0C11582E5D80708F5C1152F
:1012800021E5D20708F0E0C08C2F837021E030E028
:1012900002C0220F331F8A95E2F73C68CE0174E04A
:1012A000969587957A95E1F78370382BCF70C69520
:1012B000C69540E2C49FE0011124C22BD32B49C143
:1012C0002C2F26952695CE0183709927C115D345DD
:1012D00008F0BFC040E2249F90011124C1E0D0E09B
:1012E00002C0CC0FDD1F8A95E2F72C2B3D2BE901C4
:1012F000DC682FC181154AE59407A0F4C11589E582
:10130000D80708F0C4C0C11526E5D20708F4B5C057
:10131000C11538E5D30708F4CFC0DC2FCC27C06F48
:10132000D06A17C181159B4508F4C6C0C1158CE56C
:10133000D80708F4BEC0CE0190568115904208F03F
:10134000BBC08D2F8F710E942A0BDD27D0628F7159
:10135000D82BFFC0853A910509F4B1C0863A9105B2
:1013600009F0B0C0C2E8D0E4F4C0883A910509F4AD
:10137000ACC0893A910509F4ABC08A3A910509F4E9
:10138000AAC08B3A910509F4A9C08C3A910509F4D9
:10139000A8C08B3B910509F4A7C08C3B910509F4CB
:1013A000A6C08D3A910509F4A5C0803B910509F4CA
:1013B000A4C08E3A910509F4A3C08F3A910509F4AF
:1013C000A2C0813B910509F4A1C0823B910509F4BB
:1013D000A0C0833B910509F49FC0843B910509F4AB
:1013E0009EC0853B910509F49DC0863B910509F49B
:1013F0009CC0873B910509F49BC0883B910509F48B
:101400009AC0893B910509F499C08D3B910509F477
:1014100098C08E3B910509F497C08A3B910509F469
:1014200096C0C0E0D4E495C00E94E008EC0191C0F1
:101430009927D3FF03C0EC01D86C8BC0EC01D06CB2
:1014400088C0DF70D06A85C0DC2FCC27C16FD06A1E
:1014500080C040E2249F90011124C1E0D0E002C08E
:10146000CC0FDD1F8A95E2F7C22BD32BDA6871C04F
:10147000D82FCC27C46FD06A6CC08C2F0E942A0B47
:101480008F71C82FD0E0DC2FCC27D06262C08C2FA8
:101490008F700E942A0B94E0D695C7959A95E1F734
:1014A000CF70D0E0DC2FCC27D06A8F70806EC82B35
:1014B00050C0DD27D0664DC0C0E0D0E04AC0C1E8D2
:1014C000D0E447C0C3E8D0E444C0C2EED4E441C095
:1014D000C9EED4E43EC0CAEED4E43BC0C5EBD4E4CC
:1014E00038C0C6EBD4E435C0C3EBD4E432C0C4EB9F
:1014F000D4E42FC0C7EBD4E42CC0CCECD4E429C096
:10150000CDECD4E426C0C3E8D5E423C0CAE8D5E4D2
:1015100020C0C2E9D5E41DC0C4E9D5E41AC0C1E2C7
:10152000D6E417C0C3E2D6E414C0C4E2D6E411C0C6
:10153000C5E2D6E40EC0C6E2D6E40BC0C7E2D6E4EC
:1015400008C0CFE6D4E405C0C0E7D4E402C0CAE2D4
:10155000D6E4CE01DF91CF9108958238910549F10B
:10156000B0F48133910509F458C048F489329105EB
:1015700009F44EC08A32910509F454C008958533A8
:10158000910509F440C08933910599F00895833E8F
:10159000910529F138F4803E910591F0823E910544
:1015A000A1F00895863E9105F9F0873E910531F14D
:1015B00008952091210320FD3AC021FD38C00895EF
:1015C0008091210380FD35C032C08091210382FFCC
:1015D00032C08091210384FD30C083EE39C08091F8
:1015E000210382FD28C0F5CF8091210383FF27C00E
:1015F0008091210384FD21C087EE2AC080912103C0
:1016000083FD1DC0F5CF8091210385FD1AC01BC04D
:101610008091210385FD17C014C08091210386FDB0
:1016200014C015C08091210386FD11C00EC080EE4C
:101630000FC089E30DC082EE0BC080E009C086EECA
:1016400007C089E205C085E303C08AE201C081E3E7
:1016500090E008959091210392FF0DC0282F2871EA
:10166000283019F4877F846006C0282F2471243025
:1016700011F48B7F886093FF0DC0282F28712831CB
:1016800019F4877E846106C0282F2471243111F457
:101690008B7E886194FD877E0895CF93DF938130A0
:1016A00020E8920768F0FB012281222349F0EC0137
:1016B0000E947A0BCE019F770E94C20B0E94AF0B53
:1016C00081E0DF91CF9108958CE090E00E94DD21D0
:1016D00090E0A0E0B0E08093190390931A03A093E8
:1016E0001B03B0931C030895609119038CE090E0F4
:1016F0000C94EB210E94AB17809331020E94BE171D
:1017000080911903813071F048F08230D9F0843033
:10171000F9F486EE0E94260F88E118C082EE0E943E
:10172000B00D16C080EE0E94B00D81EE0E94B00D8B
:1017300088E10E94260F81EE0E94C70E80EE0E9473
:10174000C70E06C082EE0E94B00D87E50E94260FEC
:101750008FE39CE90197F1F700C0000008958091A4
:101760001903813021F038F0823029F007C08CE273
:101770000E94260F03C082EE0E94C70E80913102A4
:101780000C94BB170F931F93CF93DF938C01CCE086
:10179000D0E0C8010C2E02C0969587950A94E2F716
:1017A0008F700E9412070E94260F2497CC3F8FEF64
:1017B000D80779F7DF91CF911F910F9108950F937B
:1017C0001F93CF93DF93EC018B01FB018281882370
:1017D00019F1C23EFCE5DF07C1F050F4C03EECE574
:1017E000DE0781F0C13EFCE5DF07B1F481E010C007
:1017F000C33E8CE5D80759F0C43EECE5DE0761F442
:1018000084E006C01092190305C082E001C083E0A5
:10181000809319030E94740BB801CE01DF91CF9120
:101820001F910F910C944D0B9093370280933602C9
:101830000895E0913602F0913702309721F001903F
:10184000F081E02D099480E00895E0913602F09156
:101850003702309799F020910E01222359F0209100
:10186000210327FF07C0DC012C9111962C931197BF
:1018700025E02C930280F381E02D099408952091B6
:101880003402309135028217930771F0909335023C
:1018900080933402E0913602F0913702309721F0C4
:1018A0000680F781E02D099408952091320230914D
:1018B00033028217930771F09093330280933202C0
:1018C000E0913602F0913702309721F00084F185E3
:1018D000E02D0994089585B7806885BF85B7806835
:1018E00085BF089508950E946B0C0C94720C81E0E2
:1018F00008950E94271A0E947A030C94BE1ACF9270
:10190000DF92EF92FF920F931F93CF93DF93CDB7A8
:10191000DEB72B970FB6F894DEBF0FBECDBF0E9487
:101920004C040E94770C811111C08FEF89838A8348
:101930001B820E94301A8160782F9D838C8349819D
:101940005A816B818D810E94610D56C089E3C82E3A
:1019500082E0D82E00E010E0E02E802F0E94940458
:10196000F60141916F01F42EF82631F40F5F1F4FFD
:101970000E30110589F7D9CF9091F40291FF04C080
:101980008B870E949A048B8520E030E04F2D50E039
:10199000922FBA01022E02C0759567950A94E2F75C
:1019A00060FF24C02E83EF8221E030E0690102C095
:1019B000CC0CDD1C9A95E2F790E08C219D21892BBF
:1019C00009F420E028870E94301A8160782F9A87D6
:1019D00089874E815F8168858A850E94610DF80143
:1019E000E75CFD4F8081C826C08206C02F5F3F4F55
:1019F0002630310569F6BACF109138020E94190CD1
:101A00001817A1F00E94190C809338022B960FB67C
:101A1000F894DEBF0FBECDBFDF91CF911F910F9124
:101A2000FF90EF90DF90CF900C9423072B960FB68A
:101A3000F894DEBF0FBECDBFDF91CF911F910F9104
:101A4000FF90EF90DF90CF900895DC0111962C91DC
:101A500011978C91682F70E041E050E001C0440F75
:101A60008A95EAF712968C91129730E0882329F034
:101A7000809157028823E9F006C0F901E95BFD4F28
:101A800090819423B1F086E0829FF001839FF00D56
:101A90001124E60FF71FEE0FFF1FE15FFE4F80815D
:101AA00091818D939C93F901E95BFD4F8081482BD7
:101AB00006C0F901E95BFD4F4095808148234083D2
:101AC0000895CF93DF93CDB7DEB72B970FB6F89479
:101AD000DEBF0FBECDBF942F4F83252F5887698758
:101AE0007A878B874A855B85452B21F02F3F09F547
:101AF0009F3FF9F4DE01119686E0FD0111928A956F
:101B0000E9F785E0FE01379601900D928A95E1F79D
:101B100049815A816B817C818D819E810E949F14B5
:101B20002B960FB6F894DEBF0FBECDBFDF91CF91DD
:101B30000895CE0107960E94250DDCCFFC0180811F
:101B400091810E946C1792959F70963041F480911C
:101B5000570291E089278093570290935602089587
:101B6000882309F413C1682F8238C1F40E94190C2C
:101B700081FD0CC169E380910201909103010E94F3
:101B800083190E94FA172FEF81EE94E021508040D4
:101B90009040E1F700C0000069E319C08338F9F410
:101BA0000E94190C80FDF2C063E5809102019091C2
:101BB00003010E9483190E94FA172FEF81EE94E02F
:101BC000215080409040E1F700C0000063E5809123
:101BD0000201909103010E948E190C94FA17843827
:101BE000C1F40E94190C82FDD1C067E4809102010A
:101BF000909103010E9483190E94FA172FEF81EE42
:101C000094E0215080409040E1F700C0000067E47C
:101C1000DECF8CEF860F813A38F4809102019091EB
:101C200003010E948319D9CF80E2860F883048F4DF
:101C3000677081E001C0880F6A95EAF70E94AE17CD
:101C4000CCCF8BE5860F833070F4653A29F0663A85
:101C500031F083E890E005C081E890E002C082E8BE
:101C600090E00C943F0C88E5860F873108F08EC019
:101C7000683A09F445C0693A09F445C06A3A09F47A
:101C800045C06B3A09F445C06C3A09F445C06B3B5A
:101C900009F445C06C3B09F445C06D3A09F445C0F0
:101CA000603B09F445C06E3A09F445C06F3A09F447
:101CB00045C0613B09F445C0623B09F445C0633B44
:101CC00009F445C0643B09F445C0653B09F445C0CF
:101CD000663B09F445C0673B09F445C0683B09F41D
:101CE00045C0693B09F445C06D3B09F445C06E3BF6
:101CF00009F445C06A3B09F445C080E090E044C067
:101D000082EE90E041C089EE90E03EC08AEE90E025
:101D10003BC085EB90E038C086EB90E035C083EBAC
:101D200090E032C084EB90E02FC087EB90E02CC0B5
:101D30008CEC90E029C08DEC90E026C083E891E027
:101D400023C08AE891E020C082E991E01DC084E9C7
:101D500091E01AC081E292E017C083E292E014C0E1
:101D600084E292E011C085E292E00EC086E292E049
:101D70000BC087E292E008C08FE690E005C080E7E4
:101D800090E002C08AE292E00C94550C08958823FA
:101D900009F45BC0682F823879F40E94190C81FF26
:101DA00054C069E380910201909103010E9483195C
:101DB0000E94FA1769E310C08338B1F40E94190C2D
:101DC00080FF43C063E580910201909103010E946E
:101DD00083190E94FA1763E5809102019091030133
:101DE0000E948E190C94FA17843879F40E94190C09
:101DF00082FF2BC067E480910201909103010E9451
:101E000083190E94FA1767E4E7CF8CEF860F813AB7
:101E100018F380E2860F883048F4677081E001C0D3
:101E2000880F6A95EAF70E94B417DCCF8BE5860F1E
:101E3000833020F480E090E00C943F0C685A6731C6
:101E400020F480E090E00C94550C0895CF93C82FB7
:101E50000E94B00D8C2FCF910C94C70E882321F0D7
:101E60000E94AE170C94FA170895882321F00E945F
:101E7000B4170C94FA1708958F929F92AF92BF9265
:101E8000DF92EF92FF920F931F93CF93DF937C012A
:101E9000D62FC72FFC01058102950F7012811111F9
:101EA0000E94CE170E94A417882379F0112369F0AD
:101EB00080E28D0F883048F082E00E9445180E9431
:101EC000A41791E0D82ED92601C0D12CAC2EA29413
:101ED0008FE0A822B12CF501EA58FF4F0C94D721CE
:101EE0008C2F807FCF70882311F0C295C07F112383
:101EF00099F0CC2309F486C180E28D0F883010F070
:101F0000D11104C08C2F0E94AE1703C08C2F0E94E9
:101F1000C1170E94FA1776C18D2F0E94C70ECC23DD
:101F200009F4ECC180E28D0F883010F0D11104C0AB
:101F30008C2F0E94B41703C08C2F0E94C7170E94D9
:101F4000FA17DCC18C2F807FCF70803211F0C295E0
:101F5000C07FDD2319F0D130C9F021C0112371F009
:101F6000002341F0013031F40E94E1178C2B0E94D4
:101F7000E717C4C10E94E1178C2BFDC0002319F0A4
:101F8000013009F4BBC10E94F01711C0112321F0E8
:101F9000023008F0B3C107C00111B0C108C011235D
:101FA00021F001112FC18C2FE6C001113CC18C2FF3
:101FB000E8C08C2F86958695837090E0009719F085
:101FC000019761F09BC1112321F08D2F9C2F9370FD
:101FD00002C080E090E00E943F0CA0C1112321F0DC
:101FE0008D2F9C2F937002C080E090E00E94550CD2
:101FF00095C18C2F837009F050C011118BC18D2FAA
:10200000829586958770880F880F9D2F9F70892EE7
:10201000912CA12CB12C082E04C0880C991CAA1C50
:10202000BB1C0A94D2F7D4FF14C00FE010E020E0EC
:1020300030E0B901A80104C0440F551F661F771F87
:102040008A95D2F7CB01BA016095709580959095ED
:1020500003C060E070E0CB01C695C695C370D0E0C8
:10206000C230D10561F0C330D10581F068297929EA
:102070008A299B29219771F00E94E4154BC1682998
:1020800079298A299B290E94F61544C10E94E415EA
:10209000C501B4010E94D2153DC1112319F08C2F46
:1020A000817001C08695882309F434C18D2F8295F3
:1020B00086958770880F880F9D2F9F70892E912C91
:1020C000A12CB12C082E04C0880C991CAA1CBB1C86
:1020D0000A94D2F7D4FF14C00FE010E020E030E003
:1020E000B901A80104C0440F551F661F771F8A95C8
:1020F000D2F7CB01BA01609570958095909503C099
:1021000060E070E0CB01C695C695C3704C2F50E0DF
:102110004230510569F04330510589F06829792929
:102120008A299B294130510571F00E94A916F2C0FD
:10213000682979298A299B290E94BB16EBC00E9435
:10214000A916C501B4010E949716E4C08D2F90E036
:10215000FC01E05EF109E531F10508F04FC0EA57F6
:10216000FF4F0C94D721DF708C2F8F71112331F02A
:102170000E9430168D2F0E942E0FC0C00E94511653
:102180008D2F0E94350FBAC0112339F00111B6C04E
:102190008C2F8F710E947616B1C0023008F0AEC04D
:1021A000F7CF112339F08C2F8F710E943016A6C003
:1021B0001123C9F38C2F8F710E9451169FC01123D8
:1021C00029F08C2F8F710E941B1698C00E94161642
:1021D00095C0112349F0CF718C2F0E94301663E017
:1021E0008C2F0E9430188AC081E00E94451802306E
:1021F00008F484C082E00E94451880C0112331F0A9
:10220000002389F28D2F0E94B00D78C0002391F237
:10221000D93349F45FEF67EE73E05150604070408E
:10222000E1F700C000008D2F0E94C70E67C04C2F41
:102230004F706D2FC7010E945A060E9443156EC051
:10224000D23FB1F028F4D03F49F0D13FF9F028C097
:10225000D43FB9F058F0D53F71F022C0112309F4F2
:1022600047C09091570281E0892708C081E0182774
:10227000109357023DC011113BC081E0809357027B
:1022800037C0111135C01092570232C0112329F006
:1022900080915602882329F329C0002311F328C016
:1022A000809156020023C1F0882341F0909157029B
:1022B00081E0892780935702109256028D2F1123B7
:1022C00019F00E94B00D14C00E94C70E86E0F701FD
:1022D00011928A95E9F70CC0882351F0111108C0BA
:1022E0009091570281E089278093570210925602FD
:1022F0004C2F4F706D2FC7010E94CD08F8E0AF162C
:10230000B10441F05CF04AE0A41AB10852E0A5160D
:10231000B10420F40E94190C0E942307DD20E1F093
:102320000E94A01780FD18C0F70112820E949A1720
:102330000E943016C7010E94B8110E949A17DF91BF
:10234000CF911F910F91FF90EF90DF90BF90AF90D2
:102350009F908F900C945116DF91CF911F910F9108
:10236000FF90EF90DF90BF90AF909F908F90089577
:102370000F931F93CF93DF93EC01888199812B8179
:102380003C81232BB9F09F3F11F48F3F99F0CE0190
:102390000E943507882371F0688179818A810E94C3
:1023A00077178C010E94CD160E94CF15B801CE017F
:1023B0000E943C0FDF91CF911F910F9108950E94D1
:1023C000CE170E94DE170E94FA1780E090E00E946C
:1023D0003F0C80E090E00C94550C809102019091AC
:1023E00003010E9499190C94DF110E94BE170C94EE
:1023F000ED11E92FE295EF70F0E03297EE30F10544
:10240000B0F4E556FF4F0C94D721803F91F018F4BB
:10241000803E68F40EC0843F51F40BC0803E48F00B
:10242000813F29F406C093FB882780F9089580E056
:10243000089581E008950E946C170E94F911089593
:10244000CF93DF9300D000D01F92CDB7DEB70F90AF
:102450000F900F900F900F90DF91CF910895CF9331
:10246000DF9300D000D000D0CDB7DEB726960FB6F0
:10247000F894DEBF0FBECDBFDF91CF9108951F93BB
:10248000CF93DF93C091580216E080915902C8178C
:1024900099F0D0E01C9FF0011D9FF00D1124E65A29
:1024A000FD4F4081518162817381848195810E94B9
:1024B0002F122196C770E9CFDF91CF911F91089518
:1024C00040918A0250918B0260918C0270918D0232
:1024D00080918E0290918F020C942F1280918F0226
:1024E00082958F7009F054C080918C02882309F482
:1024F0004FC080915802A091590260918A02709158
:102500008B0240918D0250918E02B6E08A1709F439
:102510003FC090E041155105C1F17F3F11F46F3F7D
:10252000A1F1B89FF001B99FF00D1124E65AFD4FBB
:10253000218172132AC02081621327C022812111B8
:1025400024C0238134812417350710F42150310928
:10255000241B350B283C3105C0F420918F022F70CD
:10256000206120938F0226E0289FF001299FF00D23
:102570001124E15AFD4F80818F70806180838AE849
:1025800092E00E94B8110C943F1201968770BECF62
:102590000895CF92DF92EF92FF920F931F93CF9304
:1025A000DF93CDB7DEB762970FB6F894DEBF0FBEEC
:1025B000CDBF8C0185E0F801DE011D9601900D92E2
:1025C0008A95E1F7D8014C9111965C91119712967A
:1025D0006C9112971396CD90DC90149730918A02EB
:1025E00070918B0280918D0290918E02009709F478
:1025F0006BC17F3F19F43F3F09F466C1E0908C0244
:10260000EE2009F4C0C020918F02C816D90628F028
:10261000F601E81BF90BCF0104C0809590958C0D55
:102620009D1DFF24F394883C910578F0F12C207FC8
:1026300009F0C6C07C2DD98AC88A89890E942012D7
:102640008AE892E00E94B811B1C0822F807F09F021
:1026500046C0751314C0341312C0611110C02F701E
:10266000206120938F020E9460128AE892E00E940B
:10267000B81180918F02D80115968C932EC0CD2869
:1026800019F15F3F11F44F3FF9F0F62E61111CC0B4
:10269000809158022091590236E0821709F45AC0FD
:1026A00090E0389FF001399FF00D1124E65AFD4F5C
:1026B0007181571306C07081471303C07281711175
:1026C00003C001968770E9CFF62E662309F427C16F
:1026D00080918F02816080938F02F12C20C175134D
:1026E00008C0341306C0611104C080918F02D80164
:1026F000C3C04D875E878D859E856A8B0E941B12A5
:102700006A898823E1F16623D1F120918F02822F1B
:1027100082958F7090E0029774F080918A02909178
:102720008B0298878F831986DB86CA862C87CE0119
:1027300007960E94B81186E0F801AAE8B2E001907D
:102740000D928A95E1F70E946E120E946012FF249A
:10275000F394E5C04D875E878D859E850E946C173A
:10276000292F22952F7030E0223031050CF0CBC09C
:102770009F7009F0C5C0805E883008F4D0C0C801E1
:102780000E94B811E4CFC816D90608F453C0F60168
:10279000E81BF90BCF01883C910508F450C0F12CDF
:1027A0007C2DD98AC88A89890E942012EAE8F2E041
:1027B00086E0DF011D928A95E9F70E946012AFC0A2
:1027C000751314C0341312C0611110C080918F02B0
:1027D000F8018583C8010E94B81186E0EAE8F2E0BA
:1027E000DF011D928A95E9F7FE2C99C04D875E871F
:1027F0008D859E856A8B0E941B126A89882309F445
:10280000BECF662309F4BBCF20918F02822F829521
:102810008F7090E002970CF48ECF80918A02909195
:102820008B029A8389831B82DD82CC822E83CE0128
:1028300001967FCF809590958C0D9D1DACCFF62E87
:10284000662309F49CCF75132EC034132CC020913D
:102850008F0220FD1FC0822F82958F70D9F0D80182
:1028600015962C9315978F3049F08F5F982F92957E
:10287000907F822F8F70892B15968C93C8010E94B0
:10288000B81186E0F801AAE8B2E001900D928A95AD
:10289000E1F793CF86E0F801AAE8B2E001900D924B
:1028A0008A95E1F73CC04D875E878D859E850E94A5
:1028B0001B12811140CF80918F02816080938F0223
:1028C000C8010E94B8112BC0662309F458CF4D8768
:1028D0005E878D859E850E941B12F82E882309F441
:1028E0004ECF86E0F801AAE8B2E001900D928A95F9
:1028F000E1F78AE892E00E949E0D0E946E125DCF81
:10290000811139CF0CC0243031050CF038CF9F70C5
:1029100009F431CFF8019581907F09F02CCF8F2DEC
:1029200062960FB6F894DEBF0FBECDBFDF91CF9198
:102930001F910F91FF90EF90DF90CF9008951F931C
:10294000CF93DF93CDB7DEB72C970FB6F894DEBFE9
:102950000FBECDBF4F83588769877A878B879C8747
:10296000CE0107960E94C912882369F08F8198854D
:102970002A853B85232BF1F19F3F09F063C08F3FF0
:1029800009F060C037C086E0FE013796DE0111967F
:1029900001900D928A95E1F76F817885EA85FB8534
:1029A000309741F17F3F11F46F3F21F1209159029F
:1029B00030E0C9010196877099274091580250E094
:1029C0008417950709F447C069837A83FD83EC83F4
:1029D00096E0929FD001939FB00D1124A65ABD4F4F
:1029E000FE01319601900D929A95E1F7809359027C
:1029F0000E943F1216E08091580290915902891767
:102A0000C1F1189FC0011124865A9D4F0E94C9121E
:102A1000882379F1E09158021E9FF0011124E65AB3
:102A2000FD4F4081518162817381848195810E9433
:102A30002F128091580290E0019687709927809319
:102A40005802D9CF4F81588569857A858B859C85B9
:102A50000E942F12CFCF0E94F511109259021092AE
:102A60005802EAE8F2E086E0DF011D928A95E9F774
:102A7000C1CF2C960FB6F894DEBF0FBECDBFDF914D
:102A8000CF911F910895EF92FF920F931F93CF93D1
:102A9000DF938C01892B09F46CC0F12CEE24E394B4
:102AA000E8012196F8018491843740F4843008F0DD
:102AB00051C0813081F0823019F15BC0853709F453
:102AC00044C0A8F19CE7980F903708F052C08F7768
:102AD0000E94C70E41C00E5F1F4FFE01C49180E2ED
:102AE0008C0F883048F4C7708E2D01C0880FCA95AE
:102AF000EAF70E94D11714C08C2F0E94B00D2DC090
:102B00000E5F1F4FFE01C49180E28C0F883058F495
:102B1000C7708E2D01C0880FCA95EAF70E94D7179B
:102B20000E94FA171AC08C2F0E94C70E16C00E5FA3
:102B30001F4FFE01C491CC2381F08FE99FE00197E4
:102B4000F1F700C00000C150F6CF0E5F1F4FFE012D
:102B5000F49003C00E94B00D8E018F2D882309F4DC
:102B60009FCFEFE9FFE03197F1F700C000008150FF
:102B7000F5CFDF91CF911F910F91FF90EF900895C6
:102B800008950C94C0150E94C1156093CB027093F8
:102B9000CC028093CD029093CE020C94DF11089565
:102BA0000C94C3150F931F930091CB021091CC028C
:102BB0002091CD023091CE02602B712B822B932B72
:102BC0001F910F910C94C3150F931F930091CB028B
:102BD0001091CC022091CD023091CE02602371235E
:102BE000822393231F910F910C94C3150F931F936E
:102BF0000091CB021091CC022091CD023091CE02F7
:102C000060277127822793271F910F910C94C3157A
:102C10000C9474060E9408166093C7027093C80251
:102C20008093C9029093CA020C94DF1160E070E0B7
:102C3000CB010C940A160F931F9341E050E060E023
:102C400070E08A019B0104C0000F111F221F331F77
:102C50008A95D2F7C901B8011F910F910C940A16F9
:102C60000F931F9341E050E060E070E004C0440F18
:102C7000551F661F771F8A95D2F78091C7029091E2
:102C8000C802A091C902B091CA028A019B01082B17
:102C9000192B2A2B3B2BC901B8011F910F910C94C2
:102CA0000A160F931F9341E050E060E070E004C00B
:102CB000440F551F661F771F8A95D2F74095509590
:102CC000609570958091C7029091C802A091C90249
:102CD000B091CA028A019B01082319232A233B23AE
:102CE000C901B8011F910F910C940A160F931F93FD
:102CF00041E050E060E070E004C0440F551F661FE3
:102D0000771F8A95D2F78091C7029091C802A0914F
:102D1000C902B091CA028A019B01082719272A27F4
:102D20003B27C901B8011F910F910C940A160F930C
:102D30001F930091C7021091C8022091C9023091DF
:102D4000CA02602B712B822B932B1F910F910C9435
:102D50000A160F931F930091C7021091C802209189
:102D6000C9023091CA0260237123822393231F91E9
:102D70000F910C940A160F931F930091C7021091A4
:102D8000C8022091C9023091CA02602771278227A8
:102D900093271F910F910C940A160895292F220F43
:102DA000920F990F890FA82FA695A695A6958770C3
:102DB00051E001C0550F8A95EAF785E0A89FD00140
:102DC000112420E030E070E0F901EA0FFB1FE0572A
:102DD000FD4F4081CB01022E02C0969587950A9443
:102DE000E2F7817099278195842785238427808342
:102DF0002F5F3F4F2530310539F70895292F220FD6
:102E0000920F990F890F682F669566956695982F92
:102E1000977085E0689FB001112440E050E080E0A9
:102E2000FA01E60FF71FE057FD4F208130E0092E31
:102E300002C0369527950A94E2F721703327042EB5
:102E400001C0220F0A94EAF7822B4F5F5F4F453093
:102E5000510531F70895BF92CF92DF92EF92FF9222
:102E60000F931F93CF93DF938C01C090CB02D09030
:102E7000CC02E090CD02F090CE028091C7029091FA
:102E8000C802A091C902B091CA02C82AD92AEA2A66
:102E9000FB2ACFE1D0E0D701C6010C2E04C0B695C5
:102EA000A795979587950A94D2F780FF07C0BC2E07
:102EB000B8018C2F0E94E808019719F4219758F760
:102EC000B12C8B2DDF91CF911F910F91FF90EF903F
:102ED000DF90CF90BF900895CF93DF93EC010E94D5
:102EE0002B17BE010E94E808DF91CF9108951F9330
:102EF000CF93DF93EB0190915502992321F0CB0101
:102F00000E946C1713C0882349F0CB010E942B1735
:102F1000182F682FCE010E94CE1604C0CB010E944C
:102F2000FE16182FBE01812F0E94E808DF91CF9175
:102F30001F9108958091CF02859585958595089577
:102F40008091CF02877008959091CF02977081E0B1
:102F500009F480E008958091F30208959091F302BE
:102F6000892B8093F302089580959091F302892331
:102F70008093F30208958093F30208951092F30270
:102F800008959091F202892B8093F2020895809522
:102F90009091F20289238093F20208951092F20236
:102FA00008959091F102892B8093F1020895809504
:102FB0009091F10289238093F10208951092F10219
:102FC00008958091D002089508950C94E41790918B
:102FD000D002981721F08093D0020C94E517089541
:102FE0008091D002882329F01092D00280E00C94C6
:102FF000E5170895E0910201F09103018091F30239
:103000008083E0910201F091030190818091F202AE
:10301000892B8083E0910201F091030190818091DE
:10302000F102892B80838091D002882381F0E09186
:103030000201F09103019081892B8083809102012C
:10304000909103010E941E1981110E94F017809136
:103050000201909103010C94250C08950C942D18F5
:1030600098E0899F90011124262B2093CF020E9483
:1030700030168091CF028595859585950C942E18F4
:103080001092CF0280E00C942E182091CF028095F0
:1030900082238093CF02982F977079F430E0482FE5
:1030A000082E000C550B2417350739F085958595AA
:1030B00085950E9451160C9440180895CF92DF9286
:1030C000EF92FF926C01EE24FF24C114D104E104BD
:1030D000F10421F0C701B60120E101C020E0C72EB4
:1030E000D82EE92EFF24C114D104E104F10419F013
:1030F000285FC701B6016B017C0154E0F694E794A8
:10310000D794C7945A95D1F7C114D104E104F104BE
:1031100019F02C5FC701B6016B017C0142E0F69407
:10312000E794D794C7944A95D1F7C114D104E10428
:10313000F10419F02E5FC701B601DC01CB01B69591
:10314000A79597958795892B8A2B8B2B09F02F5F55
:10315000822FFF90EF90DF90CF90089580E090E075
:103160000E94E52121E08D3E9E4F09F020E0822F54
:10317000089582E090E00C94DD2183E090E00C94CF
:10318000DD2184E090E00C94DD21682F84E090E064
:103190000C94EB21AB01BC018FE090E00C94FD217D
:1031A000AB01BC0183E190E00C94FD2160E070E094
:1031B000CB010C94D01860E070E0CB010E94CA18DB
:1031C0000C94D6186DEE7EEF80E090E00E9409220C
:1031D00060E082E090E00E94EB2160E083E090E01C
:1031E0000E94EB211092CB021092CC021092CD02E1
:1031F0001092CE0260E084E090E00E94EB2160E05B
:1032000085E090E00E94EB2160E086E090E00E9483
:10321000EB216FEF87E090E00E94EB2140E050E06F
:10322000BA0188E090E00E94FD2160E08DE090E02E
:103230000E94EB210C94DB180C94E218FC013296EE
:1032400080910E01882331F08091210387FF02C015
:103250009EE101C096E080E0915028F02191222368
:10326000D9F38F5FF9CF08959C01FC0132969FEF4F
:1032700080E04191461789F09F3F19F4411101C048
:10328000982F8F5F8630A9F79F3F39F0F901E90F3A
:10329000F11D97FDFA95628308950895FC01329619
:1032A00008962081261301C010823196E817F9078D
:1032B000C1F70895262F2695269526952E3168F478
:1032C000FC01E20FF11D677021E030E001C0220F28
:1032D0006A95EAF78281282B22830895262F269566
:1032E000269526952E3170F4FC01E20FF11D6770D2
:1032F00021E030E001C0220F6A95EAF72095828133
:1033000028232283089520910E01222329F0209161
:10331000210327FD0C945A190C94341920910E01A5
:10332000222329F02091210327FD0C946E190C947F
:103330004E1920910E01FC013296222331F080912A
:10334000210387FF02C08EE101C086E0DF011D92EC
:103350008A95E9F7089508950C94AB190E94AC1969
:1033600080912703843049F11092F50220E488E12E
:1033700090E00FB6F894A895809360000FBE20935C
:10338000600080E00E9423070E94AC1983B7817F10
:10339000846083BF83B7816083BF7894889583B747
:1033A0008E7F83BF0FB6F894A895809160008861E6
:1033B00080936000109260000FBE08950895CF932F
:1033C0000E94A3030E944C040E94DE19C0E08C2FCF
:1033D0000E949404811104C0CF5FCE30C1F701C0B8
:1033E00081E0CF91089508950C94F3190E94F5118E
:1033F0000E94190C0E9423070C94F4191F920F923B
:103400000FB60F9211248F939F93AF93BF93809128
:10341000F502811113C080911D0390911E03A091AC
:103420001F03B09120034196A11DB11D80931D0380
:1034300090931E03A0931F03B0932003BF91AF91FD
:103440009F918F910F900FBE0F901F90189582E063
:1034500084BD93E095BD9AEF97BD80936E0008956B
:103460002FB7F89480911D0390911E03A0911F0324
:10347000B09120032FBF0895CF92DF92EF92FF9279
:103480000F931F932FB7F89440911D0350911E0383
:1034900060911F03709120032FBF6A017B01EE240E
:1034A000FF248C0120E030E0C016D106E206F306CE
:1034B00010F4415051099A01281B390BC9011F9181
:1034C0000F91FF90EF90DF90CF90089578941F9226
:1034D0000F920FB60F9211248F939F93AF93BF93C8
:1034E00080911D0390911E03A0911F03B0912003B2
:1034F0000196A11DB11D80931D0390931E03A093FF
:103500001F03B0932003BF91AF919F918F910F90B4
:103510000FBE0F901F901895F89481E08093E00003
:1035200080E28093D800E9ECF0E010828FE19EE425
:103530000197F1F700C000001DBA109268001CBC92
:1035400010BE1FBA10927A0010926E0010926F0097
:1035500010927100109272001082ECEBF0E0108279
:1035600014B817B81AB81DB810BA108215B818B820
:103570001BB81EB811BA0C94003F08950E94AE18F3
:10358000811102C00E941C190E94B9188093F40294
:103590000E94C11890E090932203809321030E941F
:1035A000BD18682F70E080E090E00C94D0158091F9
:1035B0001603089508950F931F93CF93DF9300D0C0
:1035C0001F92CDB7DEB78C010E941E1D823011F014
:1035D000843021F584E089831B830A8382E0809311
:1035E000E9008FEF9091E800815095FD06C095EDC0
:1035F0009A95F1F700008111F5CF8091E80085FFE1
:103600000DC040E050E063E070E0CE0101960E9402
:103610003B1D8091E8008E778093E8000F900F901B
:103620000F90DF91CF911F910F910895CF93DF936A
:1036300000D01F92CDB7DEB720912703243031F59B
:1036400023E02983805891099B838A8382E08093B9
:10365000E9008FEF9091E800815095FD06C095ED4F
:103660009A95F1F700008111F5CF8091E80085FF70
:103670000DC040E050E063E070E0CE0101960E9492
:103680003B1D8091E8008E778093E8000F900F90AB
:103690000F90DF91CF910895CF93DF93EC010E94BB
:1036A0001E1D823011F08430D9F580910E018823DF
:1036B00039F08091210387FF03C060E282E002C0FD
:1036C00068E081E08093E9008FEF9091E8008150FD
:1036D00095FD06C095ED9A95F1F700008111F5CFA3
:1036E0008091E80085FF1CC080910E01811105C00A
:1036F00040E050E068E070E003C070E040E050E07F
:10370000CE010E943B1D8091E8008E778093E800F7
:1037100080E2FE01A6EFB2E001900D928A95E1F7FA
:10372000DF91CF91089580912603811109C00E94F5
:10373000D01E0E942D1F8091E20084608093E200E1
:103740000895109226030895089508950C94F6198B
:1037500042E061EC81E00E944A1E42E261EC82E0BC
:103760000C944A1E80912903833009F460C030F420
:10377000813071F0823009F499C008958A3009F4DB
:1037800085C08B3009F46BC0893009F0A7C020C018
:1037900080912803813A09F0A1C08091E800877FD9
:1037A0008093E80080912C0390912D03892B21F4C4
:1037B00060E286EF92E003C060E080E090E070E0BD
:1037C0000E94861D8091E8008B778093E800089521
:1037D00080912803813209F081C080912C0390915F
:1037E0002D03029708F07AC08091E800877F8093CC
:1037F000E8008091E80082FD05C0809127038111D7
:10380000F8CF6CC02091F3008091F20090E0922BF1
:10381000029729F48091F1008B7F813021F480910F
:10382000F100809316038091E8008B7753C080915C
:103830002803813A09F052C080912C0390912D0306
:10384000892B09F04BC08091E800877F8093E800C6
:103850008091E80080FFFCCF80910E0136C08091FE
:1038600028038132D9F580912C0390912D03892B67
:10387000A9F58091E800877F8093E8000E947F1E71
:1038800080912A0380930E010C94F51180912803F6
:10389000813221F58091E800877F8093E8000E94C3
:1038A0007F1E80912B038093170308958091280336
:1038B000813AA1F48091E800877F8093E8008091AD
:1038C000E80080FFFCCF809117038093F100809186
:1038D000E8008E778093E8000C947F1E089584B7EB
:1038E000877F84BF0FB6F894A895809160008861A7
:1038F00080936000109260000FBE80E880936100AA
:10390000109261000E94730C0E94D01E0E942D1F15
:103910008091E20084608093E20078940E94BC2150
:103920000E94790C84E091E00E94140C809127039E
:10393000853069F40E94AE19809125038823B1F384
:103940000E94DF19882391F30E94251DEFCF0E946A
:103950007F0CECCF0C94AC1C292F3327233031057E
:10396000C9F064F42130310581F02230310509F0CD
:103970004CC08BE390E027ED34E04BC021323105A1
:1039800021F12232310589F140C082E190E022E14B
:1039900035E03FC099278130910571F02CF4892BD7
:1039A000A1F5E3EDF4E00DC08230910541F00397FD
:1039B00061F5EDE9F4E005C0EBEBF4E002C0E3EA09
:1039C000F4E0849190E09F0124C06115710541F0FD
:1039D00061307105D1F489E090E022E035E019C052
:1039E00089E090E029EE34E014C06115710541F0E2
:1039F0006130710551F481E790E024E235E009C0BF
:103A000080E490E025E935E004C080E090E020E02B
:103A100030E0FA013183208308950895CF93C82FB1
:103A20000E940D1DC0931803CF9108958091270324
:103A3000843011F081E0089582E0089580911803A8
:103A4000811102C00C94161D089580E189BD82E1A8
:103A500089BD09B400FEFDCF8091D8008F7D809391
:103A6000D8008091E00082608093E0008091E000C7
:103A700081FDFCCF0895CF92DF92EF92FF920F93DA
:103A80001F93CF93DF93EC018B016A010E949E1E6E
:103A9000811133C0C114D10439F0F60180819181C4
:103AA000081B190BC80FD91FE12CF12C01151105AA
:103AB00019F18091E80085FD16C08091E8008E77AD
:103AC0008093E800C114D10449F0F601808191810E
:103AD000E80EF91EF182E08285E00FC00E949E1E72
:103AE000882321F30AC089918093F10001501109C4
:103AF000FFEFEF1AFF0ADACF80E0DF91CF911F913D
:103B00000F91FF90EF90DF90CF90089520912E03BA
:103B100030912F032617370748F06115710539F4E6
:103B20002091E8002E772093E80001C0B90140E021
:103B300061157105A9F120912703222309F443C0DF
:103B4000253009F442C02091E80023FD40C02091B7
:103B5000E80022FD32C02091E80020FFE9CF40912B
:103B6000F3002091F20030E0342BFC01CF0161150D
:103B7000710559F02830310540F481918093F100AE
:103B8000615071092F5F3F4FF1CF41E0283031057F
:103B900009F040E02091E8002E772093E800C8CF9C
:103BA0004111C9CF0AC080912703882361F0853075
:103BB00061F08091E80083FD0AC08091E80082FFF7
:103BC000F2CF80E0089582E0089583E0089581E0D7
:103BD000089520912E0330912F032617370748F0C0
:103BE0006115710539F42091E8002E772093E800E3
:103BF00001C0B901FC0120E06115710591F18091CE
:103C00002703882309F440C0853009F43FC0809120
:103C1000E80083FD3DC08091E80082FD2FC08091C7
:103C2000E80080FFE9CF2091F3008091F20090E05E
:103C3000922B6115710559F08830910540F424915B
:103C40002093F1003196615071090196F2CF21E085
:103C5000089709F020E08091E8008E778093E800D3
:103C6000CBCF2111CCCF0AC080912703882361F0EC
:103C7000853061F08091E80083FD0AC08091E80002
:103C800082FFF2CF80E0089582E0089583E00895F6
:103C900081E00895982F973058F59093E900981790
:103CA00039F07091EC002091ED005091F00003C0CC
:103CB000242F762F50E021FF19C03091EB003E7F7A
:103CC0003093EB003091ED003D7F3093ED0030916B
:103CD000EB0031603093EB007093EC002093ED002B
:103CE0005093F0002091EE0027FF07C09F5FD3CFD5
:103CF0008F708093E90081E0089580E008958091BD
:103D0000280387FF11C08091E80082FD05C08091E3
:103D100027038111F8CF11C08091E8008B770BC089
:103D200080912703882349F08091E80080FFF8CF35
:103D30008091E8008E778093E80008952091E40058
:103D40003091E50095E64091EC00842F817040FFB2
:103D500022C08091E80080FD1CC080912703882349
:103D600091F0853091F08091EB0085FD10C040917D
:103D7000E4005091E5004217530729F39A0191504E
:103D800011F784E0089582E0089583E0089581E0CA
:103D9000089580E008954091E80042FFDECF089545
:103DA0000E943E1F0E94461FE0EEF0E0808181608D
:103DB0008083E8EDF0E080818F77808319BCA7EDE8
:103DC000B0E08C918E7F8C9380818F7E8083109267
:103DD000260308950F931F93CF93DF930E943E1FF6
:103DE0000E94461FC8EDD0E088818F778883888144
:103DF0008068888388818F7D888319BC109227030F
:103E000010922303109225031092240300EE10E079
:103E1000F80180818B7F808388818160888342E084
:103E200060E080E00E944A1EE1EEF0E080818E7F3B
:103E30008083E2EEF0E08081816080838081886011
:103E40008083F80180818E7F808388818061888370
:103E5000DF91CF911F910F910895E8EDF0E08081FF
:103E60008F7E8083E7EDF0E080818160808384E055
:103E700082BF81E0809326030C94EA1EE8EDF0E017
:103E800080818E7F80831092E20008951092DA0084
:103E90001092E10008951F920F920FB60F92112415
:103EA0002F933F934F935F936F937F938F939F9342
:103EB000AF93BF93EF93FF938091E10082FF0BC01C
:103EC0008091E20082FF07C08091E1008B7F8093A8
:103ED000E1000E94BB218091DA0080FF1FC0809129
:103EE000D80080FF1BC08091DA008E7F8093DA00BB
:103EF0008091D90080FF0DC080E189BD82E189BD3C
:103F000009B400FEFDCF81E0809327030E94931B3C
:103F100005C019BC109227030E94A11B8091E100EB
:103F200080FF19C08091E20080FF15C08091E200FF
:103F30008E7F8093E2008091E20080618093E200B6
:103F40008091D80080628093D80019BC85E080936E
:103F500027030E94A51B8091E10084FF30C080915F
:103F6000E20084FF2CC080E189BD82E189BD09B4F3
:103F700000FEFDCF8091D8008F7D8093D800809186
:103F8000E1008F7E8093E1008091E2008F7E80933C
:103F9000E2008091E20081608093E200809123033F
:103FA000882311F084E007C08091E30087FD02C000
:103FB00081E001C083E0809327030E94A61B8091CB
:103FC000E10083FF29C08091E20083FF25C080913A
:103FD000E100877F8093E10082E0809327031092C5
:103FE00023038091E1008E7F8093E1008091E200C5
:103FF0008E7F8093E2008091E20080618093E200F6
:1040000042E060E080E00E944A1E8091F0008860FB
:104010008093F0000E94A41BFF91EF91BF91AF919C
:104020009F918F917F916F915F914F913F912F91D0
:104030000F900FBE0F901F9018951F920F920FB602
:104040000F9211242F933F934F935F936F937F931E
:104050008F939F93AF93BF93CF93DF93EF93FF9390
:10406000C091E900CF708091EC00D82FD17080FD15
:10407000D0E81092E9008091F000877F8093F000F3
:1040800078940E9461201092E9008091F00088608D
:104090008093F000CD2BCF70C093E900FF91EF919A
:1040A000DF91CF91BF91AF919F918F917F916F9150
:1040B0005F914F913F912F910F900FBE0F901F90E6
:1040C00018951F93CF93DF93CDB7DEB7AA970FB69E
:1040D000F894DEBF0FBECDBFE8E2F3E088E08E0FBC
:1040E0009091F10091938E13FBCF0E94B21B8091AF
:1040F000E80083FF28C18091280390912903492F6C
:1041000050E04A30510508F01EC1FA01E755FF4F53
:104110000C94D721803821F0823809F014C108C0EE
:104120008091240390912503992389F082600FC028
:1041300080912C038F70873008F005C18093E900CF
:104140008091EB0085FB882780F91092E90090911F
:10415000E800977F9093E8008093F1001092F100BF
:10416000D0C0282F2D7F09F0EEC0882319F08230AF
:1041700061F0E9C080912A03813009F0E4C09330F6
:1041800009F080E0809325032EC080912A038111DD
:104190002AC080912C038F702FEF280F263008F053
:1041A000D2C08093E9002091EB0020FF1CC0933027
:1041B00021F48091EB00806214C09091EB0090613B
:1041C0009093EB0021E030E0A90102C0440F551F9D
:1041D0008A95E2F74093EA001092EA008091EB00A2
:1041E00088608093EB001092E9008091E800877F5F
:1041F0008093E8000E947F1EA6C08111A4C0109188
:104200002A031F778091E3008078812B8093E3005D
:104210008091E800877F8093E8000E947F1E809154
:10422000E80080FFFCCF8091E30080688093E3008A
:10423000111102C082E001C083E08093270383C094
:104240008058823008F07FC080912A0390912B0320
:104250008C3D53E0950779F583E08A838AE2898370
:104260004FB7F894DE01139620E03EE051E2E32FD1
:10427000F0E050935700E49120FF03C0E295EF7007
:104280003F5FEF708E2F90E0EA3010F0C79601C0CC
:10429000C0968D939D932F5F243149F74FBF809136
:1042A000E800877F8093E8006AE270E0CE01019623
:1042B0000E94861D15C060912C0370912D03AE01E4
:1042C0004F5F5F4F0E94AA1CBC01892BE1F19091C6
:1042D000E800977F9093E80089819A810E94E91D08
:1042E0008091E8008B778093E8002DC0803859F5E5
:1042F0008091E800877F8093E8008091230380937A
:10430000F1008091E8008E7773CF81111CC09091ED
:104310002A039230C0F48091E800877F8093E80000
:10432000909323030E947F1E80912303811106C076
:104330008091E30087FD02C081E001C084E08093AA
:1043400027030E94A81B8091E80083FF0AC0809188
:10435000E800877F8093E8008091EB008062809383
:10436000EB00AA960FB6F894DEBF0FBECDBFDF916B
:10437000CF911F9108950895CF93809127038823AB
:10438000A1F0C091E900CF709091EC00892F81706D
:1043900090FD80E8C82B1092E9008091E80083FD31
:1043A0000E946120CF70C093E900CF910895EE0F75
:1043B000FF1F0590F491E02D0994F999FECF92BD6D
:1043C00081BDF89A992780B50895A8E1B0E042E050
:1043D00050E00C941122262FF999FECF92BD81BD99
:1043E000F89A019700B4021639F01FBA20BD0FB633
:1043F000F894FA9AF99A0FBE08950396272F0E940F
:10440000EC210E94EB21252F0E94EC21242F0C94FB
:10441000EC210196272F0E94EC210C94EB21DC016A
:10442000CB01FC01F999FECF06C0F2BDE1BDF89ABF
:10443000319600B40D9241505040B8F70895F89469
:02444000FFCFAC
:104442002000D102D71A4C1BDA1A161BDB1A010004
:104452000D010D020D030D040D050D000C010C02E2
:104462000C030C040C050C000B010B020B030B04D8
:104472000B050B000A010A020A030A040A050A00D4
:1044820009010902090309040905090008010802D2
:1044920008030804080508000701070207030704C8
:1044A20007050700060106020603060406050600C4
:1044B20005010502050305040505050004010402C2
:1044C20004030404040504000301030203030304B8
:1044D20003050300020102020203020402050200B4
:1044E20001010102010301040105010000010002B2
:0844F2000003000400050000B6
:00000001FF
